{
  "address": "0xE1F17916566Eba7ecdd79eE0a3A506Fde2c7A5Bc",
  "abi": [
    {
      "inputs": [
        {
          "internalType": "string",
          "name": "name",
          "type": "string"
        },
        {
          "internalType": "string",
          "name": "symbol",
          "type": "string"
        },
        {
          "internalType": "uint8",
          "name": "decimals_",
          "type": "uint8"
        },
        {
          "internalType": "address",
          "name": "owner_",
          "type": "address"
        }
      ],
      "stateMutability": "nonpayable",
      "type": "constructor"
    },
    {
      "inputs": [],
      "name": "AccessControlBadConfirmation",
      "type": "error"
    },
    {
      "inputs": [
        {
          "internalType": "address",
          "name": "account",
          "type": "address"
        },
        {
          "internalType": "bytes32",
          "name": "neededRole",
          "type": "bytes32"
        }
      ],
      "name": "AccessControlUnauthorizedAccount",
      "type": "error"
    },
    {
      "inputs": [],
      "name": "ECDSAInvalidSignature",
      "type": "error"
    },
    {
      "inputs": [
        {
          "internalType": "uint256",
          "name": "length",
          "type": "uint256"
        }
      ],
      "name": "ECDSAInvalidSignatureLength",
      "type": "error"
    },
    {
      "inputs": [
        {
          "internalType": "bytes32",
          "name": "s",
          "type": "bytes32"
        }
      ],
      "name": "ECDSAInvalidSignatureS",
      "type": "error"
    },
    {
      "inputs": [
        {
          "internalType": "address",
          "name": "spender",
          "type": "address"
        },
        {
          "internalType": "uint256",
          "name": "allowance",
          "type": "uint256"
        },
        {
          "internalType": "uint256",
          "name": "needed",
          "type": "uint256"
        }
      ],
      "name": "ERC20InsufficientAllowance",
      "type": "error"
    },
    {
      "inputs": [
        {
          "internalType": "address",
          "name": "sender",
          "type": "address"
        },
        {
          "internalType": "uint256",
          "name": "balance",
          "type": "uint256"
        },
        {
          "internalType": "uint256",
          "name": "needed",
          "type": "uint256"
        }
      ],
      "name": "ERC20InsufficientBalance",
      "type": "error"
    },
    {
      "inputs": [
        {
          "internalType": "address",
          "name": "approver",
          "type": "address"
        }
      ],
      "name": "ERC20InvalidApprover",
      "type": "error"
    },
    {
      "inputs": [
        {
          "internalType": "address",
          "name": "receiver",
          "type": "address"
        }
      ],
      "name": "ERC20InvalidReceiver",
      "type": "error"
    },
    {
      "inputs": [
        {
          "internalType": "address",
          "name": "sender",
          "type": "address"
        }
      ],
      "name": "ERC20InvalidSender",
      "type": "error"
    },
    {
      "inputs": [
        {
          "internalType": "address",
          "name": "spender",
          "type": "address"
        }
      ],
      "name": "ERC20InvalidSpender",
      "type": "error"
    },
    {
      "inputs": [],
      "name": "ErrorInsufficientFunds",
      "type": "error"
    },
    {
      "inputs": [],
      "name": "InvalidShortString",
      "type": "error"
    },
    {
      "inputs": [
        {
          "internalType": "address",
          "name": "owner",
          "type": "address"
        }
      ],
      "name": "OwnableInvalidOwner",
      "type": "error"
    },
    {
      "inputs": [
        {
          "internalType": "address",
          "name": "account",
          "type": "address"
        }
      ],
      "name": "OwnableUnauthorizedAccount",
      "type": "error"
    },
    {
      "inputs": [],
      "name": "SignerNotMessageSender",
      "type": "error"
    },
    {
      "inputs": [],
      "name": "SignerNotOwner",
      "type": "error"
    },
    {
      "inputs": [
        {
          "internalType": "string",
          "name": "str",
          "type": "string"
        }
      ],
      "name": "StringTooLong",
      "type": "error"
    },
    {
      "anonymous": false,
      "inputs": [
        {
          "indexed": true,
          "internalType": "address",
          "name": "owner",
          "type": "address"
        },
        {
          "indexed": true,
          "internalType": "address",
          "name": "spender",
          "type": "address"
        },
        {
          "indexed": false,
          "internalType": "uint256",
          "name": "value",
          "type": "uint256"
        }
      ],
      "name": "Approval",
      "type": "event"
    },
    {
      "anonymous": false,
      "inputs": [
        {
          "indexed": true,
          "internalType": "address",
          "name": "owner",
          "type": "address"
        },
        {
          "indexed": true,
          "internalType": "address",
          "name": "spender",
          "type": "address"
        }
      ],
      "name": "ApprovalEncrypted",
      "type": "event"
    },
    {
      "anonymous": false,
      "inputs": [],
      "name": "EIP712DomainChanged",
      "type": "event"
    },
    {
      "anonymous": false,
      "inputs": [
        {
          "indexed": true,
          "internalType": "address",
          "name": "previousOwner",
          "type": "address"
        },
        {
          "indexed": true,
          "internalType": "address",
          "name": "newOwner",
          "type": "address"
        }
      ],
      "name": "OwnershipTransferred",
      "type": "event"
    },
    {
      "anonymous": false,
      "inputs": [
        {
          "indexed": true,
          "internalType": "bytes32",
          "name": "role",
          "type": "bytes32"
        },
        {
          "indexed": true,
          "internalType": "bytes32",
          "name": "previousAdminRole",
          "type": "bytes32"
        },
        {
          "indexed": true,
          "internalType": "bytes32",
          "name": "newAdminRole",
          "type": "bytes32"
        }
      ],
      "name": "RoleAdminChanged",
      "type": "event"
    },
    {
      "anonymous": false,
      "inputs": [
        {
          "indexed": true,
          "internalType": "bytes32",
          "name": "role",
          "type": "bytes32"
        },
        {
          "indexed": true,
          "internalType": "address",
          "name": "account",
          "type": "address"
        },
        {
          "indexed": true,
          "internalType": "address",
          "name": "sender",
          "type": "address"
        }
      ],
      "name": "RoleGranted",
      "type": "event"
    },
    {
      "anonymous": false,
      "inputs": [
        {
          "indexed": true,
          "internalType": "bytes32",
          "name": "role",
          "type": "bytes32"
        },
        {
          "indexed": true,
          "internalType": "address",
          "name": "account",
          "type": "address"
        },
        {
          "indexed": true,
          "internalType": "address",
          "name": "sender",
          "type": "address"
        }
      ],
      "name": "RoleRevoked",
      "type": "event"
    },
    {
      "anonymous": false,
      "inputs": [
        {
          "indexed": true,
          "internalType": "address",
          "name": "from",
          "type": "address"
        },
        {
          "indexed": true,
          "internalType": "address",
          "name": "to",
          "type": "address"
        },
        {
          "indexed": false,
          "internalType": "uint256",
          "name": "value",
          "type": "uint256"
        }
      ],
      "name": "Transfer",
      "type": "event"
    },
    {
      "anonymous": false,
      "inputs": [
        {
          "indexed": true,
          "internalType": "address",
          "name": "from",
          "type": "address"
        },
        {
          "indexed": true,
          "internalType": "address",
          "name": "to",
          "type": "address"
        }
      ],
      "name": "TransferEncrypted",
      "type": "event"
    },
    {
      "inputs": [],
      "name": "BURNER_ROLE",
      "outputs": [
        {
          "internalType": "bytes32",
          "name": "",
          "type": "bytes32"
        }
      ],
      "stateMutability": "view",
      "type": "function"
    },
    {
      "inputs": [],
      "name": "DEFAULT_ADMIN_ROLE",
      "outputs": [
        {
          "internalType": "bytes32",
          "name": "",
          "type": "bytes32"
        }
      ],
      "stateMutability": "view",
      "type": "function"
    },
    {
      "inputs": [],
      "name": "MINTER_ROLE",
      "outputs": [
        {
          "internalType": "bytes32",
          "name": "",
          "type": "bytes32"
        }
      ],
      "stateMutability": "view",
      "type": "function"
    },
    {
      "inputs": [
        {
          "internalType": "address",
          "name": "owner",
          "type": "address"
        },
        {
          "internalType": "address",
          "name": "spender",
          "type": "address"
        }
      ],
      "name": "allowance",
      "outputs": [
        {
          "internalType": "uint256",
          "name": "",
          "type": "uint256"
        }
      ],
      "stateMutability": "view",
      "type": "function"
    },
    {
      "inputs": [
        {
          "internalType": "address",
          "name": "spender",
          "type": "address"
        },
        {
          "components": [
            {
              "internalType": "bytes32",
              "name": "publicKey",
              "type": "bytes32"
            },
            {
              "internalType": "bytes",
              "name": "signature",
              "type": "bytes"
            }
          ],
          "internalType": "struct Permission",
          "name": "permission",
          "type": "tuple"
        }
      ],
      "name": "allowanceEncrypted",
      "outputs": [
        {
          "internalType": "string",
          "name": "",
          "type": "string"
        }
      ],
      "stateMutability": "view",
      "type": "function"
    },
    {
      "inputs": [
        {
          "internalType": "address",
          "name": "owner",
          "type": "address"
        },
        {
          "internalType": "address",
          "name": "spender",
          "type": "address"
        },
        {
          "components": [
            {
              "internalType": "bytes32",
              "name": "publicKey",
              "type": "bytes32"
            },
            {
              "internalType": "bytes",
              "name": "signature",
              "type": "bytes"
            }
          ],
          "internalType": "struct Permission",
          "name": "permission",
          "type": "tuple"
        }
      ],
      "name": "allowanceEncrypted",
      "outputs": [
        {
          "internalType": "string",
          "name": "",
          "type": "string"
        }
      ],
      "stateMutability": "view",
      "type": "function"
    },
    {
      "inputs": [
        {
          "internalType": "address",
          "name": "spender",
          "type": "address"
        },
        {
          "internalType": "uint256",
          "name": "value",
          "type": "uint256"
        }
      ],
      "name": "approve",
      "outputs": [
        {
          "internalType": "bool",
          "name": "",
          "type": "bool"
        }
      ],
      "stateMutability": "nonpayable",
      "type": "function"
    },
    {
      "inputs": [
        {
          "internalType": "address",
          "name": "spender",
          "type": "address"
        },
        {
          "components": [
            {
              "internalType": "bytes",
              "name": "data",
              "type": "bytes"
            }
          ],
          "internalType": "struct inEuint128",
          "name": "value",
          "type": "tuple"
        }
      ],
      "name": "approveEncrypted",
      "outputs": [
        {
          "internalType": "bool",
          "name": "",
          "type": "bool"
        }
      ],
      "stateMutability": "nonpayable",
      "type": "function"
    },
    {
      "inputs": [
        {
          "internalType": "address",
          "name": "account",
          "type": "address"
        }
      ],
      "name": "balanceOf",
      "outputs": [
        {
          "internalType": "uint256",
          "name": "",
          "type": "uint256"
        }
      ],
      "stateMutability": "view",
      "type": "function"
    },
    {
      "inputs": [
        {
          "internalType": "address",
          "name": "account",
          "type": "address"
        },
        {
          "components": [
            {
              "internalType": "bytes32",
              "name": "publicKey",
              "type": "bytes32"
            },
            {
              "internalType": "bytes",
              "name": "signature",
              "type": "bytes"
            }
          ],
          "internalType": "struct Permission",
          "name": "auth",
          "type": "tuple"
        }
      ],
      "name": "balanceOfEncrypted",
      "outputs": [
        {
          "internalType": "string",
          "name": "",
          "type": "string"
        }
      ],
      "stateMutability": "view",
      "type": "function"
    },
    {
      "inputs": [],
      "name": "balanceOfEncrypted",
      "outputs": [
        {
          "internalType": "euint128",
          "name": "",
          "type": "uint256"
        }
      ],
      "stateMutability": "view",
      "type": "function"
    },
    {
      "inputs": [
        {
          "internalType": "address",
          "name": "account",
          "type": "address"
        },
        {
          "components": [
            {
              "internalType": "bytes",
              "name": "data",
              "type": "bytes"
            }
          ],
          "internalType": "struct inEuint128",
          "name": "encryptedAmount",
          "type": "tuple"
        }
      ],
      "name": "burnFromEncrypted",
      "outputs": [],
      "stateMutability": "nonpayable",
      "type": "function"
    },
    {
      "inputs": [],
      "name": "decimals",
      "outputs": [
        {
          "internalType": "uint8",
          "name": "",
          "type": "uint8"
        }
      ],
      "stateMutability": "view",
      "type": "function"
    },
    {
      "inputs": [],
      "name": "eip712Domain",
      "outputs": [
        {
          "internalType": "bytes1",
          "name": "fields",
          "type": "bytes1"
        },
        {
          "internalType": "string",
          "name": "name",
          "type": "string"
        },
        {
          "internalType": "string",
          "name": "version",
          "type": "string"
        },
        {
          "internalType": "uint256",
          "name": "chainId",
          "type": "uint256"
        },
        {
          "internalType": "address",
          "name": "verifyingContract",
          "type": "address"
        },
        {
          "internalType": "bytes32",
          "name": "salt",
          "type": "bytes32"
        },
        {
          "internalType": "uint256[]",
          "name": "extensions",
          "type": "uint256[]"
        }
      ],
      "stateMutability": "view",
      "type": "function"
    },
    {
      "inputs": [
        {
          "internalType": "bytes32",
          "name": "role",
          "type": "bytes32"
        }
      ],
      "name": "getRoleAdmin",
      "outputs": [
        {
          "internalType": "bytes32",
          "name": "",
          "type": "bytes32"
        }
      ],
      "stateMutability": "view",
      "type": "function"
    },
    {
      "inputs": [
        {
          "internalType": "bytes32",
          "name": "role",
          "type": "bytes32"
        },
        {
          "internalType": "address",
          "name": "account",
          "type": "address"
        }
      ],
      "name": "grantRole",
      "outputs": [],
      "stateMutability": "nonpayable",
      "type": "function"
    },
    {
      "inputs": [
        {
          "internalType": "bytes32",
          "name": "role",
          "type": "bytes32"
        },
        {
          "internalType": "address",
          "name": "account",
          "type": "address"
        }
      ],
      "name": "hasRole",
      "outputs": [
        {
          "internalType": "bool",
          "name": "",
          "type": "bool"
        }
      ],
      "stateMutability": "view",
      "type": "function"
    },
    {
      "inputs": [
        {
          "internalType": "uint256",
          "name": "amount",
          "type": "uint256"
        }
      ],
      "name": "mint",
      "outputs": [],
      "stateMutability": "nonpayable",
      "type": "function"
    },
    {
      "inputs": [
        {
          "internalType": "address",
          "name": "to",
          "type": "address"
        },
        {
          "components": [
            {
              "internalType": "bytes",
              "name": "data",
              "type": "bytes"
            }
          ],
          "internalType": "struct inEuint128",
          "name": "encryptedAmount",
          "type": "tuple"
        }
      ],
      "name": "mintEncrypted",
      "outputs": [],
      "stateMutability": "nonpayable",
      "type": "function"
    },
    {
      "inputs": [],
      "name": "name",
      "outputs": [
        {
          "internalType": "string",
          "name": "",
          "type": "string"
        }
      ],
      "stateMutability": "view",
      "type": "function"
    },
    {
      "inputs": [],
      "name": "owner",
      "outputs": [
        {
          "internalType": "address",
          "name": "",
          "type": "address"
        }
      ],
      "stateMutability": "view",
      "type": "function"
    },
    {
      "inputs": [],
      "name": "renounceOwnership",
      "outputs": [],
      "stateMutability": "nonpayable",
      "type": "function"
    },
    {
      "inputs": [
        {
          "internalType": "bytes32",
          "name": "role",
          "type": "bytes32"
        },
        {
          "internalType": "address",
          "name": "callerConfirmation",
          "type": "address"
        }
      ],
      "name": "renounceRole",
      "outputs": [],
      "stateMutability": "nonpayable",
      "type": "function"
    },
    {
      "inputs": [
        {
          "internalType": "bytes32",
          "name": "role",
          "type": "bytes32"
        },
        {
          "internalType": "address",
          "name": "account",
          "type": "address"
        }
      ],
      "name": "revokeRole",
      "outputs": [],
      "stateMutability": "nonpayable",
      "type": "function"
    },
    {
      "inputs": [
        {
          "internalType": "bytes4",
          "name": "interfaceId",
          "type": "bytes4"
        }
      ],
      "name": "supportsInterface",
      "outputs": [
        {
          "internalType": "bool",
          "name": "",
          "type": "bool"
        }
      ],
      "stateMutability": "view",
      "type": "function"
    },
    {
      "inputs": [],
      "name": "symbol",
      "outputs": [
        {
          "internalType": "string",
          "name": "",
          "type": "string"
        }
      ],
      "stateMutability": "view",
      "type": "function"
    },
    {
      "inputs": [],
      "name": "totalSupply",
      "outputs": [
        {
          "internalType": "uint256",
          "name": "",
          "type": "uint256"
        }
      ],
      "stateMutability": "view",
      "type": "function"
    },
    {
      "inputs": [
        {
          "internalType": "address",
          "name": "to",
          "type": "address"
        },
        {
          "internalType": "uint256",
          "name": "value",
          "type": "uint256"
        }
      ],
      "name": "transfer",
      "outputs": [
        {
          "internalType": "bool",
          "name": "",
          "type": "bool"
        }
      ],
      "stateMutability": "nonpayable",
      "type": "function"
    },
    {
      "inputs": [
        {
          "internalType": "address",
          "name": "to",
          "type": "address"
        },
        {
          "components": [
            {
              "internalType": "bytes",
              "name": "data",
              "type": "bytes"
            }
          ],
          "internalType": "struct inEuint128",
          "name": "encryptedAmount",
          "type": "tuple"
        }
      ],
      "name": "transferEncrypted",
      "outputs": [
        {
          "internalType": "euint128",
          "name": "",
          "type": "uint256"
        }
      ],
      "stateMutability": "nonpayable",
      "type": "function"
    },
    {
      "inputs": [
        {
          "internalType": "address",
          "name": "to",
          "type": "address"
        },
        {
          "internalType": "euint128",
          "name": "value",
          "type": "uint256"
        }
      ],
      "name": "transferEncrypted",
      "outputs": [
        {
          "internalType": "euint128",
          "name": "",
          "type": "uint256"
        }
      ],
      "stateMutability": "nonpayable",
      "type": "function"
    },
    {
      "inputs": [
        {
          "internalType": "address",
          "name": "from",
          "type": "address"
        },
        {
          "internalType": "address",
          "name": "to",
          "type": "address"
        },
        {
          "internalType": "uint256",
          "name": "value",
          "type": "uint256"
        }
      ],
      "name": "transferFrom",
      "outputs": [
        {
          "internalType": "bool",
          "name": "",
          "type": "bool"
        }
      ],
      "stateMutability": "nonpayable",
      "type": "function"
    },
    {
      "inputs": [
        {
          "internalType": "address",
          "name": "from",
          "type": "address"
        },
        {
          "internalType": "address",
          "name": "to",
          "type": "address"
        },
        {
          "components": [
            {
              "internalType": "bytes",
              "name": "data",
              "type": "bytes"
            }
          ],
          "internalType": "struct inEuint128",
          "name": "value",
          "type": "tuple"
        }
      ],
      "name": "transferFromEncrypted",
      "outputs": [
        {
          "internalType": "euint128",
          "name": "",
          "type": "uint256"
        }
      ],
      "stateMutability": "nonpayable",
      "type": "function"
    },
    {
      "inputs": [
        {
          "internalType": "address",
          "name": "from",
          "type": "address"
        },
        {
          "internalType": "address",
          "name": "to",
          "type": "address"
        },
        {
          "internalType": "euint128",
          "name": "value",
          "type": "uint256"
        }
      ],
      "name": "transferFromEncrypted",
      "outputs": [
        {
          "internalType": "euint128",
          "name": "",
          "type": "uint256"
        }
      ],
      "stateMutability": "nonpayable",
      "type": "function"
    },
    {
      "inputs": [
        {
          "internalType": "address",
          "name": "newOwner",
          "type": "address"
        }
      ],
      "name": "transferOwnership",
      "outputs": [],
      "stateMutability": "nonpayable",
      "type": "function"
    },
    {
      "inputs": [
        {
          "internalType": "uint128",
          "name": "amount",
          "type": "uint128"
        }
      ],
      "name": "unwrap",
      "outputs": [],
      "stateMutability": "nonpayable",
      "type": "function"
    },
    {
      "inputs": [
        {
          "internalType": "uint128",
          "name": "amount",
          "type": "uint128"
        }
      ],
      "name": "unwrapToOwner",
      "outputs": [],
      "stateMutability": "nonpayable",
      "type": "function"
    },
    {
      "inputs": [
        {
          "internalType": "uint128",
          "name": "amount",
          "type": "uint128"
        }
      ],
      "name": "wrap",
      "outputs": [],
      "stateMutability": "nonpayable",
      "type": "function"
    }
  ],
  "transactionHash": "0xbb24f580df59cdcc4cd9d8abcdeb488dbbd937146ea6b664d42615ec61852bf6",
  "args": [
    "Fhenix",
    "tFHE",
    10,
    "0xdE9B2329C64Cb04fe74b8227897C007005d93850"
  ],
  "numDeployments": 1,
  "solcInputHash": "806ffad611877049bce9d03da33fbfba",
  "bytecode": "0x610160604052610015600061029d60201b60201c565b600b5534801561002457600080fd5b50604051616ca8380380616ca883398181016040528101906100469190610930565b806040518060400160405280601181526020017f4668656e6978205065726d697373696f6e0000000000000000000000000000008152506040518060400160405280600381526020017f312e300000000000000000000000000000000000000000000000000000000000815250868681600390816100c49190610bf0565b5080600490816100d49190610bf0565b5050506100eb6005836102b760201b90919060201c565b61012081815250506101076006826102b760201b90919060201c565b6101408181525050818051906020012060e08181525050808051906020012061010081815250504660a0818152505061014461030760201b60201c565b608081815250503073ffffffffffffffffffffffffffffffffffffffff1660c08173ffffffffffffffffffffffffffffffffffffffff16815250505050600073ffffffffffffffffffffffffffffffffffffffff168173ffffffffffffffffffffffffffffffffffffffff16036101f35760006040517f1e4fbdf70000000000000000000000000000000000000000000000000000000081526004016101ea9190610cd1565b60405180910390fd5b6102028161036260201b60201c565b5081600c60006101000a81548160ff021916908360ff1602179055506102316000801b3361042860201b60201c565b506102627f9f2df0fed2c77648de5860a4cc508cd0818c85b8b8a1ab4ceeef8d981c8956a63361042860201b60201c565b506102937f3c11d16cbaffd01df69ce1c404f6340ee057498f5f00246190ea54220576a8483361042860201b60201c565b5050505050610fdd565b60006102b082600461052660201b60201c565b9050919050565b60006020835110156102d9576102d2836105d460201b60201c565b9050610301565b826102e98361063c60201b60201c565b60000190816102f89190610bf0565b5060ff60001b90505b92915050565b60007f8b73c3c69bb8fe3d512ecc4cf759cc79239f7b179b0ffacaa9a75d522b39400f60e051610100514630604051602001610347959493929190610d14565b60405160208183030381529060405280519060200120905090565b6000600760009054906101000a900473ffffffffffffffffffffffffffffffffffffffff16905081600760006101000a81548173ffffffffffffffffffffffffffffffffffffffff021916908373ffffffffffffffffffffffffffffffffffffffff1602179055508173ffffffffffffffffffffffffffffffffffffffff168173ffffffffffffffffffffffffffffffffffffffff167f8be0079c531659141344cd1fd0a4f28419497f9722a3daafe3b4186f6b6457e060405160405180910390a35050565b600061043a838361064660201b60201c565b61051b5760016008600085815260200190815260200160002060000160008473ffffffffffffffffffffffffffffffffffffffff1673ffffffffffffffffffffffffffffffffffffffff16815260200190815260200160002060006101000a81548160ff0219169083151502179055506104b86106b160201b60201c565b73ffffffffffffffffffffffffffffffffffffffff168273ffffffffffffffffffffffffffffffffffffffff16847f2f8788117e7eff1d82e926ec794901d17c78024a50270940304540a733656f0d60405160405180910390a460019050610520565b600090505b92915050565b60006060608073ffffffffffffffffffffffffffffffffffffffff166319e1c5c4610556866106b960201b60201c565b856040518363ffffffff1660e01b8152600401610574929190610dcb565b600060405180830381865afa158015610591573d6000803e3d6000fd5b505050506040513d6000823e3d601f19601f820116820180604052508101906105ba9190610e9c565b90506105cb8161071660201b60201c565b91505092915050565b600080829050601f8151111561062157826040517f305a27a90000000000000000000000000000000000000000000000000000000081526004016106189190610f2f565b60405180910390fd5b80518161062d90610f76565b60001c1760001b915050919050565b6000819050919050565b60006008600084815260200190815260200160002060000160008373ffffffffffffffffffffffffffffffffffffffff1673ffffffffffffffffffffffffffffffffffffffff16815260200190815260200160002060009054906101000a900460ff16905092915050565b600033905090565b6060602067ffffffffffffffff8111156106d6576106d5610753565b5b6040519080825280601f01601f1916602001820160405280156107085781602001600182028036833780820191505090505b509050816020820152919050565b600060208201519050919050565b6000604051905090565b600080fd5b600080fd5b600080fd5b600080fd5b6000601f19601f8301169050919050565b7f4e487b7100000000000000000000000000000000000000000000000000000000600052604160045260246000fd5b61078b82610742565b810181811067ffffffffffffffff821117156107aa576107a9610753565b5b80604052505050565b60006107bd610724565b90506107c98282610782565b919050565b600067ffffffffffffffff8211156107e9576107e8610753565b5b6107f282610742565b9050602081019050919050565b60005b8381101561081d578082015181840152602081019050610802565b60008484015250505050565b600061083c610837846107ce565b6107b3565b9050828152602081018484840111156108585761085761073d565b5b6108638482856107ff565b509392505050565b600082601f8301126108805761087f610738565b5b8151610890848260208601610829565b91505092915050565b600060ff82169050919050565b6108af81610899565b81146108ba57600080fd5b50565b6000815190506108cc816108a6565b92915050565b600073ffffffffffffffffffffffffffffffffffffffff82169050919050565b60006108fd826108d2565b9050919050565b61090d816108f2565b811461091857600080fd5b50565b60008151905061092a81610904565b92915050565b6000806000806080858703121561094a5761094961072e565b5b600085015167ffffffffffffffff81111561096857610967610733565b5b6109748782880161086b565b945050602085015167ffffffffffffffff81111561099557610994610733565b5b6109a18782880161086b565b93505060406109b2878288016108bd565b92505060606109c38782880161091b565b91505092959194509250565b600081519050919050565b7f4e487b7100000000000000000000000000000000000000000000000000000000600052602260045260246000fd5b60006002820490506001821680610a2157607f821691505b602082108103610a3457610a336109da565b5b50919050565b60008190508160005260206000209050919050565b60006020601f8301049050919050565b600082821b905092915050565b600060088302610a9c7fffffffffffffffffffffffffffffffffffffffffffffffffffffffffffffffff82610a5f565b610aa68683610a5f565b95508019841693508086168417925050509392505050565b6000819050919050565b6000819050919050565b6000610aed610ae8610ae384610abe565b610ac8565b610abe565b9050919050565b6000819050919050565b610b0783610ad2565b610b1b610b1382610af4565b848454610a6c565b825550505050565b600090565b610b30610b23565b610b3b818484610afe565b505050565b5b81811015610b5f57610b54600082610b28565b600181019050610b41565b5050565b601f821115610ba457610b7581610a3a565b610b7e84610a4f565b81016020851015610b8d578190505b610ba1610b9985610a4f565b830182610b40565b50505b505050565b600082821c905092915050565b6000610bc760001984600802610ba9565b1980831691505092915050565b6000610be08383610bb6565b9150826002028217905092915050565b610bf9826109cf565b67ffffffffffffffff811115610c1257610c11610753565b5b610c1c8254610a09565b610c27828285610b63565b600060209050601f831160018114610c5a5760008415610c48578287015190505b610c528582610bd4565b865550610cba565b601f198416610c6886610a3a565b60005b82811015610c9057848901518255600182019150602085019450602081019050610c6b565b86831015610cad5784890151610ca9601f891682610bb6565b8355505b6001600288020188555050505b505050505050565b610ccb816108f2565b82525050565b6000602082019050610ce66000830184610cc2565b92915050565b6000819050919050565b610cff81610cec565b82525050565b610d0e81610abe565b82525050565b600060a082019050610d296000830188610cf6565b610d366020830187610cf6565b610d436040830186610cf6565b610d506060830185610d05565b610d5d6080830184610cc2565b9695505050505050565b600081519050919050565b600082825260208201905092915050565b6000610d8e82610d67565b610d988185610d72565b9350610da88185602086016107ff565b610db181610742565b840191505092915050565b610dc581610899565b82525050565b60006040820190508181036000830152610de58185610d83565b9050610df46020830184610dbc565b9392505050565b600067ffffffffffffffff821115610e1657610e15610753565b5b610e1f82610742565b9050602081019050919050565b6000610e3f610e3a84610dfb565b6107b3565b905082815260208101848484011115610e5b57610e5a61073d565b5b610e668482856107ff565b509392505050565b600082601f830112610e8357610e82610738565b5b8151610e93848260208601610e2c565b91505092915050565b600060208284031215610eb257610eb161072e565b5b600082015167ffffffffffffffff811115610ed057610ecf610733565b5b610edc84828501610e6e565b91505092915050565b600082825260208201905092915050565b6000610f01826109cf565b610f0b8185610ee5565b9350610f1b8185602086016107ff565b610f2481610742565b840191505092915050565b60006020820190508181036000830152610f498184610ef6565b905092915050565b6000819050602082019050919050565b6000610f6d8251610cec565b80915050919050565b6000610f8182610d67565b82610f8b84610f51565b9050610f9681610f61565b92506020821015610fd657610fd17fffffffffffffffffffffffffffffffffffffffffffffffffffffffffffffffff83602003600802610a5f565b831692505b5050919050565b60805160a05160c05160e051610100516101205161014051615c7161103760003960006127860152600061274b015260006144fe015260006144dd01526000613d8f01526000613de501526000613e0e0152615c716000f3fe608060405234801561001057600080fd5b50600436106102275760003560e01c806385084edd11610130578063af575a00116100b8578063d99457411161007c578063d9945741146106ca578063dd62ed3e146106e6578063f0f2d71f14610716578063f2fde38b14610734578063f9e23e051461075057610227565b8063af575a0014610600578063c4224c1914610630578063d539139314610660578063d547741f1461067e578063d918156e1461069a57610227565b806391d14854116100ff57806391d148541461054857806395d89b4114610578578063a0712d6814610596578063a217fddf146105b2578063a9059cbb146105d057610227565b806385084edd146104c2578063857a92bb146104de5780638624a349146104fa5780638da5cb5b1461052a57610227565b8063313ce567116101b35780635356c429116101825780635356c42914610404578063602772041461043457806370a0823114610464578063715018a61461049457806384b0196e1461049e57610227565b8063313ce5671461037e57806336568abe1461039c57806339c217f7146103b85780634e6db477146103e857610227565b806323b872dd116101fa57806323b872dd146102c8578063248a9ca3146102f85780632552c3ec14610328578063282c51f3146103445780632f2ff15d1461036257610227565b806301ffc9a71461022c57806306fdde031461025c578063095ea7b31461027a57806318160ddd146102aa575b600080fd5b6102466004803603810190610241919061494c565b610780565b6040516102539190614994565b60405180910390f35b6102646107fa565b6040516102719190614a3f565b60405180910390f35b610294600480360381019061028f9190614af5565b61088c565b6040516102a19190614994565b60405180910390f35b6102b26108af565b6040516102bf9190614b44565b60405180910390f35b6102e260048036038101906102dd9190614b5f565b6108b9565b6040516102ef9190614994565b60405180910390f35b610312600480360381019061030d9190614be8565b6108e8565b60405161031f9190614c24565b60405180910390f35b610342600480360381019061033d9190614c87565b610908565b005b61034c610c87565b6040516103599190614c24565b60405180910390f35b61037c60048036038101906103779190614cb4565b610cab565b005b610386610ccd565b6040516103939190614d10565b60405180910390f35b6103b660048036038101906103b19190614cb4565b610ce4565b005b6103d260048036038101906103cd9190614d4f565b610d5f565b6040516103df9190614de6565b60405180910390f35b61040260048036038101906103fd9190614d4f565b610d84565b005b61041e60048036038101906104199190614e20565b610dce565b60405161042b9190614a3f565b60405180910390f35b61044e60048036038101906104499190615027565b610ece565b60405161045b9190614a3f565b60405180910390f35b61047e60048036038101906104799190615083565b611004565b60405161048b9190614b44565b60405180910390f35b61049c61104c565b005b6104a6611060565b6040516104b997969594939291906151b8565b60405180910390f35b6104dc60048036038101906104d79190614d4f565b61110a565b005b6104f860048036038101906104f39190614c87565b611154565b005b610514600480360381019061050f919061523c565b611423565b6040516105219190614de6565b60405180910390f35b610532611506565b60405161053f91906152ab565b60405180910390f35b610562600480360381019061055d9190614cb4565b611530565b60405161056f9190614994565b60405180910390f35b61058061159b565b60405161058d9190614a3f565b60405180910390f35b6105b060048036038101906105ab91906152c6565b61162d565b005b6105ba6116a4565b6040516105c79190614c24565b60405180910390f35b6105ea60048036038101906105e59190614af5565b6116ab565b6040516105f79190614994565b60405180910390f35b61061a6004803603810190610615919061531f565b6116ce565b6040516106279190614de6565b60405180910390f35b61064a60048036038101906106459190615372565b611880565b6040516106579190614de6565b60405180910390f35b610668611895565b6040516106759190614c24565b60405180910390f35b61069860048036038101906106939190614cb4565b6118b9565b005b6106b460048036038101906106af9190614d4f565b6118db565b6040516106c19190614994565b60405180910390f35b6106e460048036038101906106df9190614c87565b611903565b005b61070060048036038101906106fb91906153b2565b611b83565b60405161070d9190614b44565b60405180910390f35b61071e611c0a565b60405161072b9190614de6565b60405180910390f35b61074e60048036038101906107499190615083565b611c51565b005b61076a600480360381019061076591906153f2565b611cd7565b6040516107779190614a3f565b60405180910390f35b60007f7965db0b000000000000000000000000000000000000000000000000000000007bffffffffffffffffffffffffffffffffffffffffffffffffffffffff1916827bffffffffffffffffffffffffffffffffffffffffffffffffffffffff191614806107f357506107f282611dd8565b5b9050919050565b60606003805461080990615490565b80601f016020809104026020016040519081016040528092919081815260200182805461083590615490565b80156108825780601f1061085757610100808354040283529160200191610882565b820191906000526020600020905b81548152906001019060200180831161086557829003601f168201915b5050505050905090565b600080610897611e42565b90506108a4818585611e4a565b600191505092915050565b6000600254905090565b6000806108c4611e42565b90506108d1858285611e5c565b6108dc858585611ef0565b60019150509392505050565b600060086000838152602001908152602001600020600101549050919050565b610910611fe4565b6109566040518060400160405280600e81526020017f49276d20746865206f776e657220000000000000000000000000000000000000815250610951611506565b61206b565b6109956040518060400160405280600b81526020017f49276d2073656e646572200000000000000000000000000000000000000000008152503361206b565b60006109b2826fffffffffffffffffffffffffffffffff16612081565b9050610a056040518060400160405280600b81526020017f556e7772617070696e6720000000000000000000000000000000000000000000815250836fffffffffffffffffffffffffffffffff16612095565b6000610a73610a638360096000610a1a611506565b73ffffffffffffffffffffffffffffffffffffffff1673ffffffffffffffffffffffffffffffffffffffff168152602001908152602001600020546120ab90919063ffffffff16565b83610a6e6000612081565b6120bf565b9050610ace6040518060400160405280601181526020017f416d6f756e7420746f20756e7772617020000000000000000000000000000000815250610ab78361213d565b6fffffffffffffffffffffffffffffffff16612095565b610b1e60096000610add611506565b73ffffffffffffffffffffffffffffffffffffffff1673ffffffffffffffffffffffffffffffffffffffff168152602001908152602001600020548261214f565b60096000610b2a611506565b73ffffffffffffffffffffffffffffffffffffffff1673ffffffffffffffffffffffffffffffffffffffff16815260200190815260200160002081905550610c076040518060400160405280601981526020017f456e637279707465642062616c616e6365207570646174656400000000000000815250610bf060096000610bb0611506565b73ffffffffffffffffffffffffffffffffffffffff1673ffffffffffffffffffffffffffffffffffffffff1681526020019081526020016000205461213d565b6fffffffffffffffffffffffffffffffff16612095565b610c13600b548261214f565b600b81905550610c576040518060400160405280601a81526020017f5f6d696e742077696c6c2062772063616c6c6564207769746820000000000000815250612163565b610c82610c62611506565b610c6b8361216f565b6fffffffffffffffffffffffffffffffff16612232565b505050565b7f3c11d16cbaffd01df69ce1c404f6340ee057498f5f00246190ea54220576a84881565b610cb4826108e8565b610cbd816122b4565b610cc783836122c8565b50505050565b6000600c60009054906101000a900460ff16905090565b610cec611e42565b73ffffffffffffffffffffffffffffffffffffffff168173ffffffffffffffffffffffffffffffffffffffff1614610d50576040517f6697b23200000000000000000000000000000000000000000000000000000000815260040160405180910390fd5b610d5a82826123ba565b505050565b6000610d7c83610d7784610d7290615519565b6124ad565b611880565b905092915050565b7f9f2df0fed2c77648de5860a4cc508cd0818c85b8b8a1ab4ceeef8d981c8956a6610dae816122b4565b610dc983610dc484610dbf90615519565b6124ad565b6124c3565b505050565b606081610dda9061552c565b336000610e327f6bdaeb2d29561f159c7ef98b16b27015fb2aeb87209c7ee656226d912f59927d8460000151604051602001610e1792919061553f565b60405160208183030381529060405280519060200120612565565b90506000610e4482856020015161257f565b90508273ffffffffffffffffffffffffffffffffffffffff168173ffffffffffffffffffffffffffffffffffffffff1614610eab576040517f51c65eae00000000000000000000000000000000000000000000000000000000815260040160405180910390fd5b610ec2610eb833896125ab565b8760000135612632565b94505050505092915050565b606081836000610f297f6bdaeb2d29561f159c7ef98b16b27015fb2aeb87209c7ee656226d912f59927d8460000151604051602001610f0e92919061553f565b60405160208183030381529060405280519060200120612565565b90506000610f3b82856020015161257f565b90508273ffffffffffffffffffffffffffffffffffffffff168173ffffffffffffffffffffffffffffffffffffffff1614610fa2576040517f51c65eae00000000000000000000000000000000000000000000000000000000815260040160405180910390fd5b610ff88660000151600960008a73ffffffffffffffffffffffffffffffffffffffff1673ffffffffffffffffffffffffffffffffffffffff1681526020019081526020016000205461266890919063ffffffff16565b94505050505092915050565b60008060008373ffffffffffffffffffffffffffffffffffffffff1673ffffffffffffffffffffffffffffffffffffffff168152602001908152602001600020549050919050565b611054611fe4565b61105e600061267c565b565b600060608060008060006060611074612742565b61107c61277d565b46306000801b600067ffffffffffffffff81111561109d5761109c614e81565b5b6040519080825280602002602001820160405280156110cb5781602001602082028036833780820191505090505b507f0f00000000000000000000000000000000000000000000000000000000000000959493929190965096509650965096509650965090919293949596565b7f3c11d16cbaffd01df69ce1c404f6340ee057498f5f00246190ea54220576a848611134816122b4565b61114f8361114a8461114590615519565b6124ad565b6127b8565b505050565b6000611171826fffffffffffffffffffffffffffffffff16612081565b90506111c46040518060400160405280600b81526020017f556e7772617070696e6720000000000000000000000000000000000000000000815250836fffffffffffffffffffffffffffffffff16612095565b600061122b61121b83600960003373ffffffffffffffffffffffffffffffffffffffff1673ffffffffffffffffffffffffffffffffffffffff168152602001908152602001600020546120ab90919063ffffffff16565b836112266000612081565b6120bf565b90506112866040518060400160405280601181526020017f416d6f756e7420746f20756e777261702000000000000000000000000000000081525061126f8361213d565b6fffffffffffffffffffffffffffffffff16612095565b6112cf600960003373ffffffffffffffffffffffffffffffffffffffff1673ffffffffffffffffffffffffffffffffffffffff168152602001908152602001600020548261214f565b600960003373ffffffffffffffffffffffffffffffffffffffff1673ffffffffffffffffffffffffffffffffffffffff168152602001908152602001600020819055506113aa6040518060400160405280601981526020017f456e637279707465642062616c616e6365207570646174656400000000000000815250611393600960003373ffffffffffffffffffffffffffffffffffffffff1673ffffffffffffffffffffffffffffffffffffffff1681526020019081526020016000205461213d565b6fffffffffffffffffffffffffffffffff16612095565b6113b6600b548261214f565b600b819055506113fa6040518060400160405280601a81526020017f5f6d696e742077696c6c2062772063616c6c6564207769746820000000000000815250612163565b61141e336114078361216f565b6fffffffffffffffffffffffffffffffff16612232565b505050565b60006114636040518060400160405280600d81526020017f5472616e7366657272696e673000000000000000000000000000000000000000815250612163565b6114a26040518060400160405280601281526020017f5472616e7366657272696e672066726f6d2000000000000000000000000000008152508561206b565b6114e16040518060400160405280601081526020017f5472616e7366657272696e6720746f20000000000000000000000000000000008152508461206b565b6114fd84846114f8856114f390615519565b6124ad565b6116ce565b90509392505050565b6000600760009054906101000a900473ffffffffffffffffffffffffffffffffffffffff16905090565b60006008600084815260200190815260200160002060000160008373ffffffffffffffffffffffffffffffffffffffff1673ffffffffffffffffffffffffffffffffffffffff16815260200190815260200160002060009054906101000a900460ff16905092915050565b6060600480546115aa90615490565b80601f01602080910402602001604051908101604052809291908181526020018280546115d690615490565b80156116235780601f106115f857610100808354040283529160200191611623565b820191906000526020600020905b81548152906001019060200180831161160657829003601f168201915b5050505050905090565b7f9f2df0fed2c77648de5860a4cc508cd0818c85b8b8a1ab4ceeef8d981c8956a6611657816122b4565b6116966040518060400160405280600881526020017f4d696e74696e672000000000000000000000000000000000000000000000000081525083612095565b6116a03383612232565b5050565b6000801b81565b6000806116b6611e42565b90506116c3818585611ef0565b600191505092915050565b60006116e860405180602001604052806000815250612163565b6117266040518060400160405280600c81526020017f5472616e7366657272696e670000000000000000000000000000000000000000815250612163565b6117656040518060400160405280601281526020017f5472616e7366657272696e672066726f6d2000000000000000000000000000008152508561206b565b6117a46040518060400160405280601081526020017f5472616e7366657272696e6720746f20000000000000000000000000000000008152508461206b565b6117fd6040518060400160405280601381526020017f5472616e7366657272696e672076616c756520000000000000000000000000008152506117e68461213d565b6fffffffffffffffffffffffffffffffff16612095565b6000829050600061180f8686846128c4565b905061186a6040518060400160405280600681526020017f5370656e742000000000000000000000000000000000000000000000000000008152506118538361213d565b6fffffffffffffffffffffffffffffffff16612095565b611875868683612b2b565b925050509392505050565b600061188d338484612b2b565b905092915050565b7f9f2df0fed2c77648de5860a4cc508cd0818c85b8b8a1ab4ceeef8d981c8956a681565b6118c2826108e8565b6118cb816122b4565b6118d583836123ba565b50505050565b60006118f933846118f4856118ef90615519565b6124ad565b612de9565b6001905092915050565b6119546040518060400160405280600981526020017f5772617070696e67200000000000000000000000000000000000000000000000815250826fffffffffffffffffffffffffffffffff16612095565b806fffffffffffffffffffffffffffffffff1661197033611004565b10156119e6576119b46040518060400160405280601281526020017f496e73756666696369656e742066756e64730000000000000000000000000000815250612163565b6040517ffda7bbda00000000000000000000000000000000000000000000000000000000815260040160405180910390fd5b611a0233826fffffffffffffffffffffffffffffffff166131bb565b6000611a1f826fffffffffffffffffffffffffffffffff16612081565b9050611a6a600960003373ffffffffffffffffffffffffffffffffffffffff1673ffffffffffffffffffffffffffffffffffffffff168152602001908152602001600020548261323d565b600960003373ffffffffffffffffffffffffffffffffffffffff1673ffffffffffffffffffffffffffffffffffffffff16815260200190815260200160002081905550611b456040518060400160405280601981526020017f456e637279707465642062616c616e6365207570646174656400000000000000815250611b2e600960003373ffffffffffffffffffffffffffffffffffffffff1673ffffffffffffffffffffffffffffffffffffffff1681526020019081526020016000205461213d565b6fffffffffffffffffffffffffffffffff16612095565b611b6d33604051602001611b599190615607565b604051602081830303815290604052612163565b611b79600b548261323d565b600b819055505050565b6000600160008473ffffffffffffffffffffffffffffffffffffffff1673ffffffffffffffffffffffffffffffffffffffff16815260200190815260200160002060008373ffffffffffffffffffffffffffffffffffffffff1673ffffffffffffffffffffffffffffffffffffffff16815260200190815260200160002054905092915050565b6000600960003373ffffffffffffffffffffffffffffffffffffffff1673ffffffffffffffffffffffffffffffffffffffff16815260200190815260200160002054905090565b611c59611fe4565b600073ffffffffffffffffffffffffffffffffffffffff168173ffffffffffffffffffffffffffffffffffffffff1603611ccb5760006040517f1e4fbdf7000000000000000000000000000000000000000000000000000000008152600401611cc291906152ab565b60405180910390fd5b611cd48161267c565b50565b606081611ce39061552c565b846000611d3b7f6bdaeb2d29561f159c7ef98b16b27015fb2aeb87209c7ee656226d912f59927d8460000151604051602001611d2092919061553f565b60405160208183030381529060405280519060200120612565565b90506000611d4d82856020015161257f565b90508273ffffffffffffffffffffffffffffffffffffffff168173ffffffffffffffffffffffffffffffffffffffff1614611db4576040517f51c65eae00000000000000000000000000000000000000000000000000000000815260040160405180910390fd5b611dcb611dc189896125ab565b8760000135612632565b9450505050509392505050565b60007f01ffc9a7000000000000000000000000000000000000000000000000000000007bffffffffffffffffffffffffffffffffffffffffffffffffffffffff1916827bffffffffffffffffffffffffffffffffffffffffffffffffffffffff1916149050919050565b600033905090565b611e578383836001613251565b505050565b6000611e688484611b83565b90507fffffffffffffffffffffffffffffffffffffffffffffffffffffffffffffffff8114611eea5781811015611eda578281836040517ffb8f41b2000000000000000000000000000000000000000000000000000000008152600401611ed19392919061562d565b60405180910390fd5b611ee984848484036000613251565b5b50505050565b600073ffffffffffffffffffffffffffffffffffffffff168373ffffffffffffffffffffffffffffffffffffffff1603611f625760006040517f96c6fd1e000000000000000000000000000000000000000000000000000000008152600401611f5991906152ab565b60405180910390fd5b600073ffffffffffffffffffffffffffffffffffffffff168273ffffffffffffffffffffffffffffffffffffffff1603611fd45760006040517fec442f05000000000000000000000000000000000000000000000000000000008152600401611fcb91906152ab565b60405180910390fd5b611fdf838383613428565b505050565b611fec611e42565b73ffffffffffffffffffffffffffffffffffffffff1661200a611506565b73ffffffffffffffffffffffffffffffffffffffff16146120695761202d611e42565b6040517f118cdaa700000000000000000000000000000000000000000000000000000000815260040161206091906152ab565b60405180910390fd5b565b61207d826120788361364d565b613924565b5050565b600061208e8260046139c6565b9050919050565b6120a7826120a283613a68565b613924565b5050565b60006120b78383613a7a565b905092915050565b60006120ca84613af3565b6120db576120d86000613b00565b93505b6120e483613b14565b6120f5576120f26000612081565b92505b6120fe82613b14565b61210f5761210c6000612081565b91505b600084905060008490506000849050600061212d6004858585613b21565b9050809450505050509392505050565b60006121488261216f565b9050919050565b600061215b8383613bd9565b905092915050565b61216c81613c52565b50565b600061217a82613b14565b61218b576121886000612081565b91505b6000829050600061219b82613cbf565b90506000608073ffffffffffffffffffffffffffffffffffffffff166373cc01546004846040518363ffffffff1660e01b81526004016121dc9291906156b9565b602060405180830381865afa1580156121f9573d6000803e3d6000fd5b505050506040513d601f19601f8201168201806040525081019061221d91906156fe565b905061222881613d1c565b9350505050919050565b600073ffffffffffffffffffffffffffffffffffffffff168273ffffffffffffffffffffffffffffffffffffffff16036122a45760006040517fec442f0500000000000000000000000000000000000000000000000000000000815260040161229b91906152ab565b60405180910390fd5b6122b060008383613428565b5050565b6122c5816122c0611e42565b613d26565b50565b60006122d48383611530565b6123af5760016008600085815260200190815260200160002060000160008473ffffffffffffffffffffffffffffffffffffffff1673ffffffffffffffffffffffffffffffffffffffff16815260200190815260200160002060006101000a81548160ff02191690831515021790555061234c611e42565b73ffffffffffffffffffffffffffffffffffffffff168273ffffffffffffffffffffffffffffffffffffffff16847f2f8788117e7eff1d82e926ec794901d17c78024a50270940304540a733656f0d60405160405180910390a4600190506123b4565b600090505b92915050565b60006123c68383611530565b156124a25760006008600085815260200190815260200160002060000160008473ffffffffffffffffffffffffffffffffffffffff1673ffffffffffffffffffffffffffffffffffffffff16815260200190815260200160002060006101000a81548160ff02191690831515021790555061243f611e42565b73ffffffffffffffffffffffffffffffffffffffff168273ffffffffffffffffffffffffffffffffffffffff16847ff6391f5c32d9c69d2a47ea670b442974b53935d1edc7fd64eb21e047a839171b60405160405180910390a4600190506124a7565b600090505b92915050565b60006124bc8260000151613d77565b9050919050565b61250c600960008473ffffffffffffffffffffffffffffffffffffffff1673ffffffffffffffffffffffffffffffffffffffff168152602001908152602001600020548261323d565b600960008473ffffffffffffffffffffffffffffffffffffffff1673ffffffffffffffffffffffffffffffffffffffff1681526020019081526020016000208190555061255b600b548261323d565b600b819055505050565b6000612578612572613d8b565b83613e42565b9050919050565b60008060008061258f8686613e83565b92509250925061259f8282613edf565b82935050505092915050565b6000600a60008473ffffffffffffffffffffffffffffffffffffffff1673ffffffffffffffffffffffffffffffffffffffff16815260200190815260200160002060008373ffffffffffffffffffffffffffffffffffffffff1673ffffffffffffffffffffffffffffffffffffffff16815260200190815260200160002054905092915050565b606061263d83613b14565b61264e5761264b6000612081565b92505b600083905061265f60048285614043565b91505092915050565b60606126748383612632565b905092915050565b6000600760009054906101000a900473ffffffffffffffffffffffffffffffffffffffff16905081600760006101000a81548173ffffffffffffffffffffffffffffffffffffffff021916908373ffffffffffffffffffffffffffffffffffffffff1602179055508173ffffffffffffffffffffffffffffffffffffffff168173ffffffffffffffffffffffffffffffffffffffff167f8be0079c531659141344cd1fd0a4f28419497f9722a3daafe3b4186f6b6457e060405160405180910390a35050565b606061277860057f00000000000000000000000000000000000000000000000000000000000000006140f990919063ffffffff16565b905090565b60606127b360067f00000000000000000000000000000000000000000000000000000000000000006140f990919063ffffffff16565b905090565b600061281f61280f83600960008773ffffffffffffffffffffffffffffffffffffffff1673ffffffffffffffffffffffffffffffffffffffff168152602001908152602001600020546120ab90919063ffffffff16565b8361281a6000612081565b6120bf565b905061286a600960008573ffffffffffffffffffffffffffffffffffffffff1673ffffffffffffffffffffffffffffffffffffffff168152602001908152602001600020548261214f565b600960008573ffffffffffffffffffffffffffffffffffffffff1673ffffffffffffffffffffffffffffffffffffffff168152602001908152602001600020819055506128b9600b548261214f565b600b81905550505050565b60006129046040518060400160405280601281526020017f5370656e64696e6720616c6c6f77616e63650000000000000000000000000000815250612163565b6129436040518060400160405280600881526020017f4f776e65722069730000000000000000000000000000000000000000000000008152508561206b565b6129826040518060400160405280600a81526020017f5370656e646572206973000000000000000000000000000000000000000000008152508461206b565b6129db6040518060400160405280600881526020017f56616c75652069730000000000000000000000000000000000000000000000008152506129c48461213d565b6fffffffffffffffffffffffffffffffff16612095565b60006129e785856125ab565b9050612a426040518060400160405280601481526020017f43757272656e7420616c6c6f77616e6365206973000000000000000000000000815250612a2b8361213d565b6fffffffffffffffffffffffffffffffff16612095565b6000612a4e82856141a9565b9050612aa96040518060400160405280600881526020017f5370656e74206973000000000000000000000000000000000000000000000000815250612a928361213d565b6fffffffffffffffffffffffffffffffff16612095565b612abd8686612ab8858561214f565b612de9565b612b1f6040518060400160405280601081526020017f4e657720616c6c6f77616e636520697300000000000000000000000000000000815250612b08612b0389896125ab565b61213d565b6fffffffffffffffffffffffffffffffff16612095565b80925050509392505050565b6000612b866040518060400160405280600c81526020017f5472616e73666572696e67200000000000000000000000000000000000000000815250612b6f8461213d565b6fffffffffffffffffffffffffffffffff16612095565b612c1e6040518060400160405280600f81526020017f43757272656e742062616c616e63650000000000000000000000000000000000815250612c07600960008873ffffffffffffffffffffffffffffffffffffffff1673ffffffffffffffffffffffffffffffffffffffff1681526020019081526020016000205461213d565b6fffffffffffffffffffffffffffffffff16612095565b612c5d6040518060400160405280600981526020017f53656e64657220697300000000000000000000000000000000000000000000008152508561206b565b6000612cc4612cb4600960008873ffffffffffffffffffffffffffffffffffffffff1673ffffffffffffffffffffffffffffffffffffffff168152602001908152602001600020548561422290919063ffffffff16565b84612cbf6000612081565b6120bf565b9050612d0f600960008673ffffffffffffffffffffffffffffffffffffffff1673ffffffffffffffffffffffffffffffffffffffff168152602001908152602001600020548261323d565b600960008673ffffffffffffffffffffffffffffffffffffffff1673ffffffffffffffffffffffffffffffffffffffff16815260200190815260200160002081905550612d9b600960008773ffffffffffffffffffffffffffffffffffffffff1673ffffffffffffffffffffffffffffffffffffffff168152602001908152602001600020548261214f565b600960008773ffffffffffffffffffffffffffffffffffffffff1673ffffffffffffffffffffffffffffffffffffffff16815260200190815260200160002081905550809150509392505050565b612e276040518060400160405280600981526020017f417070726f76696e670000000000000000000000000000000000000000000000815250612163565b612e666040518060400160405280600881526020017f4f776e65722069730000000000000000000000000000000000000000000000008152508461206b565b612ea56040518060400160405280600a81526020017f5370656e646572206973000000000000000000000000000000000000000000008152508361206b565b612efe6040518060400160405280600881526020017f56616c7565206973000000000000000000000000000000000000000000000000815250612ee78361213d565b6fffffffffffffffffffffffffffffffff16612095565b600073ffffffffffffffffffffffffffffffffffffffff168373ffffffffffffffffffffffffffffffffffffffff1603612f705760006040517fe602df05000000000000000000000000000000000000000000000000000000008152600401612f6791906152ab565b60405180910390fd5b600073ffffffffffffffffffffffffffffffffffffffff168273ffffffffffffffffffffffffffffffffffffffff1603612fe25760006040517f94280d62000000000000000000000000000000000000000000000000000000008152600401612fd991906152ab565b60405180910390fd5b80600a60008573ffffffffffffffffffffffffffffffffffffffff1673ffffffffffffffffffffffffffffffffffffffff16815260200190815260200160002060008473ffffffffffffffffffffffffffffffffffffffff1673ffffffffffffffffffffffffffffffffffffffff168152602001908152602001600020819055506130a26040518060400160405280601581526020017f416c6c6f77696e67207370656e642066726f6d3a2000000000000000000000008152508461206b565b6130e16040518060400160405280600481526020017f62793a20000000000000000000000000000000000000000000000000000000008152508361206b565b6131b66040518060400160405280600981526020017f417070726f76656420000000000000000000000000000000000000000000000081525061319f600a60008773ffffffffffffffffffffffffffffffffffffffff1673ffffffffffffffffffffffffffffffffffffffff16815260200190815260200160002060008673ffffffffffffffffffffffffffffffffffffffff1673ffffffffffffffffffffffffffffffffffffffff1681526020019081526020016000205461213d565b6fffffffffffffffffffffffffffffffff16612095565b505050565b600073ffffffffffffffffffffffffffffffffffffffff168273ffffffffffffffffffffffffffffffffffffffff160361322d5760006040517f96c6fd1e00000000000000000000000000000000000000000000000000000000815260040161322491906152ab565b60405180910390fd5b61323982600083613428565b5050565b60006132498383614236565b905092915050565b600073ffffffffffffffffffffffffffffffffffffffff168473ffffffffffffffffffffffffffffffffffffffff16036132c35760006040517fe602df050000000000000000000000000000000000000000000000000000000081526004016132ba91906152ab565b60405180910390fd5b600073ffffffffffffffffffffffffffffffffffffffff168373ffffffffffffffffffffffffffffffffffffffff16036133355760006040517f94280d6200000000000000000000000000000000000000000000000000000000815260040161332c91906152ab565b60405180910390fd5b81600160008673ffffffffffffffffffffffffffffffffffffffff1673ffffffffffffffffffffffffffffffffffffffff16815260200190815260200160002060008573ffffffffffffffffffffffffffffffffffffffff1673ffffffffffffffffffffffffffffffffffffffff168152602001908152602001600020819055508015613422578273ffffffffffffffffffffffffffffffffffffffff168473ffffffffffffffffffffffffffffffffffffffff167f8c5be1e5ebec7d5bd14f71427d1e84f3dd0314c0f7b2291e5b200ac8c7c3b925846040516134199190614b44565b60405180910390a35b50505050565b600073ffffffffffffffffffffffffffffffffffffffff168373ffffffffffffffffffffffffffffffffffffffff160361347a57806002600082825461346e919061575a565b9250508190555061354d565b60008060008573ffffffffffffffffffffffffffffffffffffffff1673ffffffffffffffffffffffffffffffffffffffff16815260200190815260200160002054905081811015613506578381836040517fe450d38c0000000000000000000000000000000000000000000000000000000081526004016134fd9392919061562d565b60405180910390fd5b8181036000808673ffffffffffffffffffffffffffffffffffffffff1673ffffffffffffffffffffffffffffffffffffffff16815260200190815260200160002081905550505b600073ffffffffffffffffffffffffffffffffffffffff168273ffffffffffffffffffffffffffffffffffffffff160361359657806002600082825403925050819055506135e3565b806000808473ffffffffffffffffffffffffffffffffffffffff1673ffffffffffffffffffffffffffffffffffffffff168152602001908152602001600020600082825401925050819055505b8173ffffffffffffffffffffffffffffffffffffffff168373ffffffffffffffffffffffffffffffffffffffff167fddf252ad1be2c89b69c2b068fc378daa952ba7f163c4a11628f55a4df523b3ef836040516136409190614b44565b60405180910390a3505050565b606060006040518060400160405280601081526020017f3031323334353637383961626364656600000000000000000000000000000000815250905060008360601b90506000602a67ffffffffffffffff8111156136ae576136ad614e81565b5b6040519080825280601f01601f1916602001820160405280156136e05781602001600182028036833780820191505090505b5090507f3000000000000000000000000000000000000000000000000000000000000000816000815181106137185761371761578e565b5b60200101907effffffffffffffffffffffffffffffffffffffffffffffffffffffffffffff1916908160001a9053507f78000000000000000000000000000000000000000000000000000000000000008160018151811061377c5761377b61578e565b5b60200101907effffffffffffffffffffffffffffffffffffffffffffffffffffffffffffff1916908160001a90535060005b6014811015613918578360048483601481106137cd576137cc61578e565b5b1a60f81b7effffffffffffffffffffffffffffffffffffffffffffffffffffffffffffff1916901c60f81c60ff168151811061380c5761380b61578e565b5b602001015160f81c60f81b8260028361382591906157bd565b6002613831919061575a565b815181106138425761384161578e565b5b60200101907effffffffffffffffffffffffffffffffffffffffffffffffffffffffffffff1916908160001a90535083600f60f81b84836014811061388a5761388961578e565b5b1a60f81b1660f81c60ff16815181106138a6576138a561578e565b5b602001015160f81c60f81b826002836138bf91906157bd565b60036138cb919061575a565b815181106138dc576138db61578e565b5b60200101907effffffffffffffffffffffffffffffffffffffffffffffffffffffffffffff1916908160001a90535080806001019150506137ae565b50809350505050919050565b60006040518060400160405280600481526020017f70303a2000000000000000000000000000000000000000000000000000000000815250836040518060400160405280600581526020017f2070313a20000000000000000000000000000000000000000000000000000000815250846040516020016139a79493929190615830565b60405160208183030381529060405290506139c181613c52565b505050565b60006060608073ffffffffffffffffffffffffffffffffffffffff166319e1c5c46139f086613cbf565b856040518363ffffffff1660e01b8152600401613a0e92919061586e565b600060405180830381865afa158015613a2b573d6000803e3d6000fd5b505050506040513d6000823e3d601f19601f82011682018060405250810190613a54919061590e565b9050613a5f816142ae565b91505092915050565b6060613a73826142bc565b9050919050565b6000613a8583613b14565b613a9657613a936000612081565b92505b613a9f82613b14565b613ab057613aad6000612081565b91505b600083905060008390506000613ae560048484608073ffffffffffffffffffffffffffffffffffffffff1663650de1cf61438a565b905080935050505092915050565b6000808214159050919050565b6000613b0d82600d6139c6565b9050919050565b6000808214159050919050565b60006060608073ffffffffffffffffffffffffffffffffffffffff1663c2d9695287613b4c88613cbf565b613b5588613cbf565b613b5e88613cbf565b6040518563ffffffff1660e01b8152600401613b7d9493929190615957565b600060405180830381865afa158015613b9a573d6000803e3d6000fd5b505050506040513d6000823e3d601f19601f82011682018060405250810190613bc3919061590e565b9050613bce816142ae565b915050949350505050565b6000613be483613b14565b613bf557613bf26000612081565b92505b613bfe82613b14565b613c0f57613c0c6000612081565b91505b600083905060008390506000613c4460048484608073ffffffffffffffffffffffffffffffffffffffff1663cc2cbeff61438a565b905080935050505092915050565b608073ffffffffffffffffffffffffffffffffffffffff166341304fac826040518263ffffffff1660e01b8152600401613c8c9190614a3f565b60006040518083038186803b158015613ca457600080fd5b505afa158015613cb8573d6000803e3d6000fd5b5050505050565b6060602067ffffffffffffffff811115613cdc57613cdb614e81565b5b6040519080825280601f01601f191660200182016040528015613d0e5781602001600182028036833780820191505090505b509050816020820152919050565b6000819050919050565b613d308282611530565b613d735780826040517fe2517d3f000000000000000000000000000000000000000000000000000000008152600401613d6a9291906159b1565b60405180910390fd5b5050565b6000613d8482600461441e565b9050919050565b60007f000000000000000000000000000000000000000000000000000000000000000073ffffffffffffffffffffffffffffffffffffffff163073ffffffffffffffffffffffffffffffffffffffff16148015613e0757507f000000000000000000000000000000000000000000000000000000000000000046145b15613e34577f00000000000000000000000000000000000000000000000000000000000000009050613e3f565b613e3c6144b8565b90505b90565b60006040517f190100000000000000000000000000000000000000000000000000000000000081528360028201528260228201526042812091505092915050565b60008060006041845103613ec85760008060006020870151925060408701519150606087015160001a9050613eba8882858561454e565b955095509550505050613ed8565b60006002855160001b9250925092505b9250925092565b60006003811115613ef357613ef26159da565b5b826003811115613f0657613f056159da565b5b031561403f5760016003811115613f2057613f1f6159da565b5b826003811115613f3357613f326159da565b5b03613f6a576040517ff645eedf00000000000000000000000000000000000000000000000000000000815260040160405180910390fd5b60026003811115613f7e57613f7d6159da565b5b826003811115613f9157613f906159da565b5b03613fd6578060001c6040517ffce698f7000000000000000000000000000000000000000000000000000000008152600401613fcd9190614b44565b60405180910390fd5b600380811115613fe957613fe86159da565b5b826003811115613ffc57613ffb6159da565b5b0361403e57806040517fd78bce0c0000000000000000000000000000000000000000000000000000000081526004016140359190614c24565b60405180910390fd5b5b5050565b6060608073ffffffffffffffffffffffffffffffffffffffff1663a1848ff38561406c86613cbf565b8560405160200161407d9190615a2a565b6040516020818303038152906040526040518463ffffffff1660e01b81526004016140aa93929190615a45565b600060405180830381865afa1580156140c7573d6000803e3d6000fd5b505050506040513d6000823e3d601f19601f820116820180604052508101906140f09190615b2b565b90509392505050565b606060ff60001b83146141165761410f83614642565b90506141a3565b81805461412290615490565b80601f016020809104026020016040519081016040528092919081815260200182805461414e90615490565b801561419b5780601f106141705761010080835404028352916020019161419b565b820191906000526020600020905b81548152906001019060200180831161417e57829003601f168201915b505050505090505b92915050565b60006141b483613b14565b6141c5576141c26000612081565b92505b6141ce82613b14565b6141df576141dc6000612081565b91505b60008390506000839050600061421460048484608073ffffffffffffffffffffffffffffffffffffffff16635211c67961438a565b905080935050505092915050565b600061422e83836146b6565b905092915050565b600061424183613b14565b6142525761424f6000612081565b92505b61425b82613b14565b61426c576142696000612081565b91505b6000839050600083905060006142a060048484608073ffffffffffffffffffffffffffffffffffffffff16622df61961438a565b905080935050505092915050565b600060208201519050919050565b6060600060016142cb8461472f565b01905060008167ffffffffffffffff8111156142ea576142e9614e81565b5b6040519080825280601f01601f19166020018201604052801561431c5781602001600182028036833780820191505090505b509050600082602001820190505b60011561437f578080600190039150507f3031323334353637383961626364656600000000000000000000000000000000600a86061a8153600a858161437357614372615b74565b5b0494506000850361432a575b819350505050919050565b6000606083838861439a89613cbf565b6143a389613cbf565b6040518463ffffffff1660e01b81526004016143c193929190615a45565b600060405180830381865afa1580156143de573d6000803e3d6000fd5b505050506040513d6000823e3d601f19601f82011682018060405250810190614407919061590e565b905061441281614882565b91505095945050505050565b60006060608073ffffffffffffffffffffffffffffffffffffffff16635fa55ca784866040518363ffffffff1660e01b815260040161445e9291906156b9565b600060405180830381865afa15801561447b573d6000803e3d6000fd5b505050506040513d6000823e3d601f19601f820116820180604052508101906144a4919061590e565b90506144af816142ae565b91505092915050565b60007f8b73c3c69bb8fe3d512ecc4cf759cc79239f7b179b0ffacaa9a75d522b39400f7f00000000000000000000000000000000000000000000000000000000000000007f00000000000000000000000000000000000000000000000000000000000000004630604051602001614533959493929190615ba3565b60405160208183030381529060405280519060200120905090565b60008060007f7fffffffffffffffffffffffffffffff5d576e7357a4501ddfe92f46681b20a08460001c111561458e576000600385925092509250614638565b6000600188888888604051600081526020016040526040516145b39493929190615bf6565b6020604051602081039080840390855afa1580156145d5573d6000803e3d6000fd5b505050602060405103519050600073ffffffffffffffffffffffffffffffffffffffff168173ffffffffffffffffffffffffffffffffffffffff160361462957600060016000801b93509350935050614638565b8060008060001b935093509350505b9450945094915050565b6060600061464f83614890565b90506000602067ffffffffffffffff81111561466e5761466d614e81565b5b6040519080825280601f01601f1916602001820160405280156146a05781602001600182028036833780820191505090505b5090508181528360208201528092505050919050565b60006146c183613b14565b6146d2576146cf6000612081565b92505b6146db82613b14565b6146ec576146e96000612081565b91505b60008390506000839050600061472160048484608073ffffffffffffffffffffffffffffffffffffffff1663eb274b7761438a565b905080935050505092915050565b600080600090507a184f03e93ff9f4daa797ed6e38ed64bf6a1f010000000000000000831061478d577a184f03e93ff9f4daa797ed6e38ed64bf6a1f010000000000000000838161478357614782615b74565b5b0492506040810190505b6d04ee2d6d415b85acef810000000083106147ca576d04ee2d6d415b85acef810000000083816147c0576147bf615b74565b5b0492506020810190505b662386f26fc1000083106147f957662386f26fc1000083816147ef576147ee615b74565b5b0492506010810190505b6305f5e1008310614822576305f5e100838161481857614817615b74565b5b0492506008810190505b612710831061484757612710838161483d5761483c615b74565b5b0492506004810190505b6064831061486a57606483816148605761485f615b74565b5b0492506002810190505b600a8310614879576001810190505b80915050919050565b600060208201519050919050565b60008060ff8360001c169050601f8111156148d7576040517fb3512b0c00000000000000000000000000000000000000000000000000000000815260040160405180910390fd5b80915050919050565b6000604051905090565b600080fd5b600080fd5b60007fffffffff0000000000000000000000000000000000000000000000000000000082169050919050565b614929816148f4565b811461493457600080fd5b50565b60008135905061494681614920565b92915050565b600060208284031215614962576149616148ea565b5b600061497084828501614937565b91505092915050565b60008115159050919050565b61498e81614979565b82525050565b60006020820190506149a96000830184614985565b92915050565b600081519050919050565b600082825260208201905092915050565b60005b838110156149e95780820151818401526020810190506149ce565b60008484015250505050565b6000601f19601f8301169050919050565b6000614a11826149af565b614a1b81856149ba565b9350614a2b8185602086016149cb565b614a34816149f5565b840191505092915050565b60006020820190508181036000830152614a598184614a06565b905092915050565b600073ffffffffffffffffffffffffffffffffffffffff82169050919050565b6000614a8c82614a61565b9050919050565b614a9c81614a81565b8114614aa757600080fd5b50565b600081359050614ab981614a93565b92915050565b6000819050919050565b614ad281614abf565b8114614add57600080fd5b50565b600081359050614aef81614ac9565b92915050565b60008060408385031215614b0c57614b0b6148ea565b5b6000614b1a85828601614aaa565b9250506020614b2b85828601614ae0565b9150509250929050565b614b3e81614abf565b82525050565b6000602082019050614b596000830184614b35565b92915050565b600080600060608486031215614b7857614b776148ea565b5b6000614b8686828701614aaa565b9350506020614b9786828701614aaa565b9250506040614ba886828701614ae0565b9150509250925092565b6000819050919050565b614bc581614bb2565b8114614bd057600080fd5b50565b600081359050614be281614bbc565b92915050565b600060208284031215614bfe57614bfd6148ea565b5b6000614c0c84828501614bd3565b91505092915050565b614c1e81614bb2565b82525050565b6000602082019050614c396000830184614c15565b92915050565b60006fffffffffffffffffffffffffffffffff82169050919050565b614c6481614c3f565b8114614c6f57600080fd5b50565b600081359050614c8181614c5b565b92915050565b600060208284031215614c9d57614c9c6148ea565b5b6000614cab84828501614c72565b91505092915050565b60008060408385031215614ccb57614cca6148ea565b5b6000614cd985828601614bd3565b9250506020614cea85828601614aaa565b9150509250929050565b600060ff82169050919050565b614d0a81614cf4565b82525050565b6000602082019050614d256000830184614d01565b92915050565b600080fd5b600060208284031215614d4657614d45614d2b565b5b81905092915050565b60008060408385031215614d6657614d656148ea565b5b6000614d7485828601614aaa565b925050602083013567ffffffffffffffff811115614d9557614d946148ef565b5b614da185828601614d30565b9150509250929050565b6000819050919050565b6000614dd0614dcb614dc684614abf565b614dab565b614abf565b9050919050565b614de081614db5565b82525050565b6000602082019050614dfb6000830184614dd7565b92915050565b600060408284031215614e1757614e16614d2b565b5b81905092915050565b60008060408385031215614e3757614e366148ea565b5b6000614e4585828601614aaa565b925050602083013567ffffffffffffffff811115614e6657614e656148ef565b5b614e7285828601614e01565b9150509250929050565b600080fd5b7f4e487b7100000000000000000000000000000000000000000000000000000000600052604160045260246000fd5b614eb9826149f5565b810181811067ffffffffffffffff82111715614ed857614ed7614e81565b5b80604052505050565b6000614eeb6148e0565b9050614ef78282614eb0565b919050565b600080fd5b600080fd5b600080fd5b600067ffffffffffffffff821115614f2657614f25614e81565b5b614f2f826149f5565b9050602081019050919050565b82818337600083830152505050565b6000614f5e614f5984614f0b565b614ee1565b905082815260208101848484011115614f7a57614f79614f06565b5b614f85848285614f3c565b509392505050565b600082601f830112614fa257614fa1614f01565b5b8135614fb2848260208601614f4b565b91505092915050565b600060408284031215614fd157614fd0614e7c565b5b614fdb6040614ee1565b90506000614feb84828501614bd3565b600083015250602082013567ffffffffffffffff81111561500f5761500e614efc565b5b61501b84828501614f8d565b60208301525092915050565b6000806040838503121561503e5761503d6148ea565b5b600061504c85828601614aaa565b925050602083013567ffffffffffffffff81111561506d5761506c6148ef565b5b61507985828601614fbb565b9150509250929050565b600060208284031215615099576150986148ea565b5b60006150a784828501614aaa565b91505092915050565b60007fff0000000000000000000000000000000000000000000000000000000000000082169050919050565b6150e5816150b0565b82525050565b6150f481614a81565b82525050565b600081519050919050565b600082825260208201905092915050565b6000819050602082019050919050565b61512f81614abf565b82525050565b60006151418383615126565b60208301905092915050565b6000602082019050919050565b6000615165826150fa565b61516f8185615105565b935061517a83615116565b8060005b838110156151ab5781516151928882615135565b975061519d8361514d565b92505060018101905061517e565b5085935050505092915050565b600060e0820190506151cd600083018a6150dc565b81810360208301526151df8189614a06565b905081810360408301526151f38188614a06565b90506152026060830187614b35565b61520f60808301866150eb565b61521c60a0830185614c15565b81810360c083015261522e818461515a565b905098975050505050505050565b600080600060608486031215615255576152546148ea565b5b600061526386828701614aaa565b935050602061527486828701614aaa565b925050604084013567ffffffffffffffff811115615295576152946148ef565b5b6152a186828701614d30565b9150509250925092565b60006020820190506152c060008301846150eb565b92915050565b6000602082840312156152dc576152db6148ea565b5b60006152ea84828501614ae0565b91505092915050565b6152fc81614abf565b811461530757600080fd5b50565b600081359050615319816152f3565b92915050565b600080600060608486031215615338576153376148ea565b5b600061534686828701614aaa565b935050602061535786828701614aaa565b92505060406153688682870161530a565b9150509250925092565b60008060408385031215615389576153886148ea565b5b600061539785828601614aaa565b92505060206153a88582860161530a565b9150509250929050565b600080604083850312156153c9576153c86148ea565b5b60006153d785828601614aaa565b92505060206153e885828601614aaa565b9150509250929050565b60008060006060848603121561540b5761540a6148ea565b5b600061541986828701614aaa565b935050602061542a86828701614aaa565b925050604084013567ffffffffffffffff81111561544b5761544a6148ef565b5b61545786828701614e01565b9150509250925092565b7f4e487b7100000000000000000000000000000000000000000000000000000000600052602260045260246000fd5b600060028204905060018216806154a857607f821691505b6020821081036154bb576154ba615461565b5b50919050565b6000602082840312156154d7576154d6614e7c565b5b6154e16020614ee1565b9050600082013567ffffffffffffffff81111561550157615500614efc565b5b61550d84828501614f8d565b60008301525092915050565b600061552536836154c1565b9050919050565b60006155383683614fbb565b9050919050565b60006040820190506155546000830185614c15565b6155616020830184614c15565b9392505050565b600081905092915050565b7f53656e6465722069730000000000000000000000000000000000000000000000600082015250565b60006155a9600983615568565b91506155b482615573565b600982019050919050565b60008160601b9050919050565b60006155d7826155bf565b9050919050565b60006155e9826155cc565b9050919050565b6156016155fc82614a81565b6155de565b82525050565b60006156128261559c565b915061561e82846155f0565b60148201915081905092915050565b600060608201905061564260008301866150eb565b61564f6020830185614b35565b61565c6040830184614b35565b949350505050565b600081519050919050565b600082825260208201905092915050565b600061568b82615664565b615695818561566f565b93506156a58185602086016149cb565b6156ae816149f5565b840191505092915050565b60006040820190506156ce6000830185614d01565b81810360208301526156e08184615680565b90509392505050565b6000815190506156f881614ac9565b92915050565b600060208284031215615714576157136148ea565b5b6000615722848285016156e9565b91505092915050565b7f4e487b7100000000000000000000000000000000000000000000000000000000600052601160045260246000fd5b600061576582614abf565b915061577083614abf565b92508282019050808211156157885761578761572b565b5b92915050565b7f4e487b7100000000000000000000000000000000000000000000000000000000600052603260045260246000fd5b60006157c882614abf565b91506157d383614abf565b92508282026157e181614abf565b915082820484148315176157f8576157f761572b565b5b5092915050565b600061580a826149af565b6158148185615568565b93506158248185602086016149cb565b80840191505092915050565b600061583c82876157ff565b915061584882866157ff565b915061585482856157ff565b915061586082846157ff565b915081905095945050505050565b600060408201905081810360008301526158888185615680565b90506158976020830184614d01565b9392505050565b60006158b16158ac84614f0b565b614ee1565b9050828152602081018484840111156158cd576158cc614f06565b5b6158d88482856149cb565b509392505050565b600082601f8301126158f5576158f4614f01565b5b815161590584826020860161589e565b91505092915050565b600060208284031215615924576159236148ea565b5b600082015167ffffffffffffffff811115615942576159416148ef565b5b61594e848285016158e0565b91505092915050565b600060808201905061596c6000830187614d01565b818103602083015261597e8186615680565b905081810360408301526159928185615680565b905081810360608301526159a68184615680565b905095945050505050565b60006040820190506159c660008301856150eb565b6159d36020830184614c15565b9392505050565b7f4e487b7100000000000000000000000000000000000000000000000000000000600052602160045260246000fd5b6000819050919050565b615a24615a1f82614bb2565b615a09565b82525050565b6000615a368284615a13565b60208201915081905092915050565b6000606082019050615a5a6000830186614d01565b8181036020830152615a6c8185615680565b90508181036040830152615a808184615680565b9050949350505050565b600067ffffffffffffffff821115615aa557615aa4614e81565b5b615aae826149f5565b9050602081019050919050565b6000615ace615ac984615a8a565b614ee1565b905082815260208101848484011115615aea57615ae9614f06565b5b615af58482856149cb565b509392505050565b600082601f830112615b1257615b11614f01565b5b8151615b22848260208601615abb565b91505092915050565b600060208284031215615b4157615b406148ea565b5b600082015167ffffffffffffffff811115615b5f57615b5e6148ef565b5b615b6b84828501615afd565b91505092915050565b7f4e487b7100000000000000000000000000000000000000000000000000000000600052601260045260246000fd5b600060a082019050615bb86000830188614c15565b615bc56020830187614c15565b615bd26040830186614c15565b615bdf6060830185614b35565b615bec60808301846150eb565b9695505050505050565b6000608082019050615c0b6000830187614c15565b615c186020830186614d01565b615c256040830185614c15565b615c326060830184614c15565b9594505050505056fea2646970667358221220d652c3dc7c06bdfa48ce30d29fe03d655f71ce5c40e2237a620c51973b80385264736f6c63430008190033",
  "devdoc": {
    "errors": {
      "AccessControlBadConfirmation()": [
        {
          "details": "The caller of a function is not the expected one. NOTE: Don't confuse with {AccessControlUnauthorizedAccount}."
        }
      ],
      "AccessControlUnauthorizedAccount(address,bytes32)": [
        {
          "details": "The `account` is missing a role."
        }
      ],
      "ECDSAInvalidSignature()": [
        {
          "details": "The signature derives the `address(0)`."
        }
      ],
      "ECDSAInvalidSignatureLength(uint256)": [
        {
          "details": "The signature has an invalid length."
        }
      ],
      "ECDSAInvalidSignatureS(bytes32)": [
        {
          "details": "The signature has an S value that is in the upper half order."
        }
      ],
      "ERC20InsufficientAllowance(address,uint256,uint256)": [
        {
          "details": "Indicates a failure with the `spender`s `allowance`. Used in transfers.",
          "params": {
            "allowance": "Amount of tokens a `spender` is allowed to operate with.",
            "needed": "Minimum amount required to perform a transfer.",
            "spender": "Address that may be allowed to operate on tokens without being their owner."
          }
        }
      ],
      "ERC20InsufficientBalance(address,uint256,uint256)": [
        {
          "details": "Indicates an error related to the current `balance` of a `sender`. Used in transfers.",
          "params": {
            "balance": "Current balance for the interacting account.",
            "needed": "Minimum amount required to perform a transfer.",
            "sender": "Address whose tokens are being transferred."
          }
        }
      ],
      "ERC20InvalidApprover(address)": [
        {
          "details": "Indicates a failure with the `approver` of a token to be approved. Used in approvals.",
          "params": {
            "approver": "Address initiating an approval operation."
          }
        }
      ],
      "ERC20InvalidReceiver(address)": [
        {
          "details": "Indicates a failure with the token `receiver`. Used in transfers.",
          "params": {
            "receiver": "Address to which tokens are being transferred."
          }
        }
      ],
      "ERC20InvalidSender(address)": [
        {
          "details": "Indicates a failure with the token `sender`. Used in transfers.",
          "params": {
            "sender": "Address whose tokens are being transferred."
          }
        }
      ],
      "ERC20InvalidSpender(address)": [
        {
          "details": "Indicates a failure with the `spender` to be approved. Used in approvals.",
          "params": {
            "spender": "Address that may be allowed to operate on tokens without being their owner."
          }
        }
      ],
      "OwnableInvalidOwner(address)": [
        {
          "details": "The owner is not a valid owner account. (eg. `address(0)`)"
        }
      ],
      "OwnableUnauthorizedAccount(address)": [
        {
          "details": "The caller account is not authorized to perform an operation."
        }
      ]
    },
    "events": {
      "Approval(address,address,uint256)": {
        "details": "Emitted when the allowance of a `spender` for an `owner` is set by a call to {approve}. `value` is the new allowance."
      },
      "ApprovalEncrypted(address,address)": {
        "details": "Emitted when the allowance of a `spender` for an `owner` is set by a call to {approveEncrypted}. `value` is the new allowance."
      },
      "EIP712DomainChanged()": {
        "details": "MAY be emitted to signal that the domain could have changed."
      },
      "RoleAdminChanged(bytes32,bytes32,bytes32)": {
        "details": "Emitted when `newAdminRole` is set as ``role``'s admin role, replacing `previousAdminRole` `DEFAULT_ADMIN_ROLE` is the starting admin for all roles, despite {RoleAdminChanged} not being emitted signaling this."
      },
      "RoleGranted(bytes32,address,address)": {
        "details": "Emitted when `account` is granted `role`. `sender` is the account that originated the contract call, an admin role bearer except when using {AccessControl-_setupRole}."
      },
      "RoleRevoked(bytes32,address,address)": {
        "details": "Emitted when `account` is revoked `role`. `sender` is the account that originated the contract call:   - if using `revokeRole`, it is the admin role bearer   - if using `renounceRole`, it is the role bearer (i.e. `account`)"
      },
      "Transfer(address,address,uint256)": {
        "details": "Emitted when `value` tokens are moved from one account (`from`) to another (`to`). Note that `value` may be zero."
      },
      "TransferEncrypted(address,address)": {
        "details": "Emitted when `value` tokens are moved from one account (`from`) to another (`to`). Note that `value` may be zero."
      }
    },
    "kind": "dev",
    "methods": {
      "allowance(address,address)": {
        "details": "See {IERC20-allowance}."
      },
      "allowanceEncrypted(address,(bytes32,bytes))": {
        "details": "Returns the remaining number of tokens that `spender` will be allowed to spend on behalf of `owner` through {transferFrom}. This is zero by default. This value changes when {approve} or {transferFrom} are called."
      },
      "approve(address,uint256)": {
        "details": "See {IERC20-approve}. NOTE: If `value` is the maximum `uint256`, the allowance is not updated on `transferFrom`. This is semantically equivalent to an infinite approval. Requirements: - `spender` cannot be the zero address."
      },
      "approveEncrypted(address,(bytes))": {
        "details": "Sets a `value` amount of tokens as the allowance of `spender` over the caller's tokens. Returns a boolean value indicating whether the operation succeeded. IMPORTANT: Beware that changing an allowance with this method brings the risk that someone may use both the old and the new allowance by unfortunate transaction ordering. One possible solution to mitigate this race condition is to first reduce the spender's allowance to 0 and set the desired value afterwards: https://github.com/ethereum/EIPs/issues/20#issuecomment-263524729 Emits an {ApprovalEncrypted} event."
      },
      "balanceOf(address)": {
        "details": "See {IERC20-balanceOf}."
      },
      "balanceOfEncrypted(address,(bytes32,bytes))": {
        "details": "Returns the value of tokens owned by `account`, sealed and encrypted for the caller."
      },
      "decimals()": {
        "details": "Returns the number of decimals used to get its user representation. For example, if `decimals` equals `2`, a balance of `505` tokens should be displayed to a user as `5.05` (`505 / 10 ** 2`). Tokens usually opt for a value of 18, imitating the relationship between Ether and Wei. This is the default value returned by this function, unless it's overridden. NOTE: This information is only used for _display_ purposes: it in no way affects any of the arithmetic of the contract, including {IERC20-balanceOf} and {IERC20-transfer}."
      },
      "eip712Domain()": {
        "details": "See {IERC-5267}."
      },
      "getRoleAdmin(bytes32)": {
        "details": "Returns the admin role that controls `role`. See {grantRole} and {revokeRole}. To change a role's admin, use {_setRoleAdmin}."
      },
      "grantRole(bytes32,address)": {
        "details": "Grants `role` to `account`. If `account` had not been already granted `role`, emits a {RoleGranted} event. Requirements: - the caller must have ``role``'s admin role. May emit a {RoleGranted} event."
      },
      "hasRole(bytes32,address)": {
        "details": "Returns `true` if `account` has been granted `role`."
      },
      "name()": {
        "details": "Returns the name of the token."
      },
      "owner()": {
        "details": "Returns the address of the current owner."
      },
      "renounceOwnership()": {
        "details": "Leaves the contract without owner. It will not be possible to call `onlyOwner` functions. Can only be called by the current owner. NOTE: Renouncing ownership will leave the contract without an owner, thereby disabling any functionality that is only available to the owner."
      },
      "renounceRole(bytes32,address)": {
        "details": "Revokes `role` from the calling account. Roles are often managed via {grantRole} and {revokeRole}: this function's purpose is to provide a mechanism for accounts to lose their privileges if they are compromised (such as when a trusted device is misplaced). If the calling account had been revoked `role`, emits a {RoleRevoked} event. Requirements: - the caller must be `callerConfirmation`. May emit a {RoleRevoked} event."
      },
      "revokeRole(bytes32,address)": {
        "details": "Revokes `role` from `account`. If `account` had been granted `role`, emits a {RoleRevoked} event. Requirements: - the caller must have ``role``'s admin role. May emit a {RoleRevoked} event."
      },
      "supportsInterface(bytes4)": {
        "details": "See {IERC165-supportsInterface}."
      },
      "symbol()": {
        "details": "Returns the symbol of the token, usually a shorter version of the name."
      },
      "totalSupply()": {
        "details": "See {IERC20-totalSupply}."
      },
      "transfer(address,uint256)": {
        "details": "See {IERC20-transfer}. Requirements: - `to` cannot be the zero address. - the caller must have a balance of at least `value`."
      },
      "transferFrom(address,address,uint256)": {
        "details": "See {IERC20-transferFrom}. Emits an {Approval} event indicating the updated allowance. This is not required by the EIP. See the note at the beginning of {ERC20}. NOTE: Does not update the allowance if the current allowance is the maximum `uint256`. Requirements: - `from` and `to` cannot be the zero address. - `from` must have a balance of at least `value`. - the caller must have allowance for ``from``'s tokens of at least `value`."
      },
      "transferFromEncrypted(address,address,(bytes))": {
        "details": "Moves a `value` amount of tokens from `from` to `to` using the allowance mechanism. `value` is then deducted from the caller's allowance. Returns a boolean value indicating whether the operation succeeded. Emits a {TransferEncrypted} event."
      },
      "transferOwnership(address)": {
        "details": "Transfers ownership of the contract to a new account (`newOwner`). Can only be called by the current owner."
      }
    },
    "version": 1
  },
  "userdoc": {
    "errors": {
      "SignerNotMessageSender()": [
        {
          "notice": "Emitted when the signer is not the message sender"
        }
      ],
      "SignerNotOwner()": [
        {
          "notice": "Emitted when the signer is not the specified owner"
        }
      ]
    },
    "kind": "user",
    "methods": {},
    "version": 1
  },
  "storageLayout": {
    "storage": [
      {
        "astId": 20285,
        "contract": "contracts/fundToken.sol:FundToken",
        "label": "_balances",
        "offset": 0,
        "slot": "0",
        "type": "t_mapping(t_address,t_uint256)"
      },
      {
        "astId": 20291,
        "contract": "contracts/fundToken.sol:FundToken",
        "label": "_allowances",
        "offset": 0,
        "slot": "1",
        "type": "t_mapping(t_address,t_mapping(t_address,t_uint256))"
      },
      {
        "astId": 20293,
        "contract": "contracts/fundToken.sol:FundToken",
        "label": "_totalSupply",
        "offset": 0,
        "slot": "2",
        "type": "t_uint256"
      },
      {
        "astId": 20295,
        "contract": "contracts/fundToken.sol:FundToken",
        "label": "_name",
        "offset": 0,
        "slot": "3",
        "type": "t_string_storage"
      },
      {
        "astId": 20297,
        "contract": "contracts/fundToken.sol:FundToken",
        "label": "_symbol",
        "offset": 0,
        "slot": "4",
        "type": "t_string_storage"
      },
      {
        "astId": 21878,
        "contract": "contracts/fundToken.sol:FundToken",
        "label": "_nameFallback",
        "offset": 0,
        "slot": "5",
        "type": "t_string_storage"
      },
      {
        "astId": 21880,
        "contract": "contracts/fundToken.sol:FundToken",
        "label": "_versionFallback",
        "offset": 0,
        "slot": "6",
        "type": "t_string_storage"
      },
      {
        "astId": 19961,
        "contract": "contracts/fundToken.sol:FundToken",
        "label": "_owner",
        "offset": 0,
        "slot": "7",
        "type": "t_address"
      },
      {
        "astId": 19600,
        "contract": "contracts/fundToken.sol:FundToken",
        "label": "_roles",
        "offset": 0,
        "slot": "8",
        "type": "t_mapping(t_bytes32,t_struct(RoleData)19595_storage)"
      },
      {
        "astId": 23681,
        "contract": "contracts/fundToken.sol:FundToken",
        "label": "_encBalances",
        "offset": 0,
        "slot": "9",
        "type": "t_mapping(t_address,t_userDefinedValueType(euint128)16)"
      },
      {
        "astId": 23688,
        "contract": "contracts/fundToken.sol:FundToken",
        "label": "_allowed",
        "offset": 0,
        "slot": "10",
        "type": "t_mapping(t_address,t_mapping(t_address,t_userDefinedValueType(euint128)16))"
      },
      {
        "astId": 23695,
        "contract": "contracts/fundToken.sol:FundToken",
        "label": "totalEncryptedSupply",
        "offset": 0,
        "slot": "11",
        "type": "t_userDefinedValueType(euint128)16"
      },
      {
        "astId": 23697,
        "contract": "contracts/fundToken.sol:FundToken",
        "label": "_customDecimals",
        "offset": 0,
        "slot": "12",
        "type": "t_uint8"
      }
    ],
    "types": {
      "t_address": {
        "encoding": "inplace",
        "label": "address",
        "numberOfBytes": "20"
      },
      "t_bool": {
        "encoding": "inplace",
        "label": "bool",
        "numberOfBytes": "1"
      },
      "t_bytes32": {
        "encoding": "inplace",
        "label": "bytes32",
        "numberOfBytes": "32"
      },
      "t_mapping(t_address,t_bool)": {
        "encoding": "mapping",
        "key": "t_address",
        "label": "mapping(address => bool)",
        "numberOfBytes": "32",
        "value": "t_bool"
      },
      "t_mapping(t_address,t_mapping(t_address,t_uint256))": {
        "encoding": "mapping",
        "key": "t_address",
        "label": "mapping(address => mapping(address => uint256))",
        "numberOfBytes": "32",
        "value": "t_mapping(t_address,t_uint256)"
      },
      "t_mapping(t_address,t_mapping(t_address,t_userDefinedValueType(euint128)16))": {
        "encoding": "mapping",
        "key": "t_address",
        "label": "mapping(address => mapping(address => euint128))",
        "numberOfBytes": "32",
        "value": "t_mapping(t_address,t_userDefinedValueType(euint128)16)"
      },
      "t_mapping(t_address,t_uint256)": {
        "encoding": "mapping",
        "key": "t_address",
        "label": "mapping(address => uint256)",
        "numberOfBytes": "32",
        "value": "t_uint256"
      },
      "t_mapping(t_address,t_userDefinedValueType(euint128)16)": {
        "encoding": "mapping",
        "key": "t_address",
        "label": "mapping(address => euint128)",
        "numberOfBytes": "32",
        "value": "t_userDefinedValueType(euint128)16"
      },
      "t_mapping(t_bytes32,t_struct(RoleData)19595_storage)": {
        "encoding": "mapping",
        "key": "t_bytes32",
        "label": "mapping(bytes32 => struct AccessControl.RoleData)",
        "numberOfBytes": "32",
        "value": "t_struct(RoleData)19595_storage"
      },
      "t_string_storage": {
        "encoding": "bytes",
        "label": "string",
        "numberOfBytes": "32"
      },
      "t_struct(RoleData)19595_storage": {
        "encoding": "inplace",
        "label": "struct AccessControl.RoleData",
        "members": [
          {
            "astId": 19592,
            "contract": "contracts/fundToken.sol:FundToken",
            "label": "hasRole",
            "offset": 0,
            "slot": "0",
            "type": "t_mapping(t_address,t_bool)"
          },
          {
            "astId": 19594,
            "contract": "contracts/fundToken.sol:FundToken",
            "label": "adminRole",
            "offset": 0,
            "slot": "1",
            "type": "t_bytes32"
          }
        ],
        "numberOfBytes": "64"
      },
      "t_uint256": {
        "encoding": "inplace",
        "label": "uint256",
        "numberOfBytes": "32"
      },
      "t_uint8": {
        "encoding": "inplace",
        "label": "uint8",
        "numberOfBytes": "1"
      },
      "t_userDefinedValueType(euint128)16": {
        "encoding": "inplace",
        "label": "euint128",
        "numberOfBytes": "32"
      }
    }
  }
}