{
  "address": "0x012BFfce1062AF209cFB3d262Bb9E82De85605A5",
  "abi": [
    {
      "inputs": [
        {
          "internalType": "address",
          "name": "wfhenix",
          "type": "address"
        },
        {
          "internalType": "address",
          "name": "feeCollector_",
          "type": "address"
        }
      ],
      "stateMutability": "nonpayable",
      "type": "constructor"
    },
    {
      "inputs": [],
      "name": "InvalidShortString",
      "type": "error"
    },
    {
      "inputs": [],
      "name": "SignerNotMessageSender",
      "type": "error"
    },
    {
      "inputs": [],
      "name": "SignerNotOwner",
      "type": "error"
    },
    {
      "inputs": [
        {
          "internalType": "string",
          "name": "str",
          "type": "string"
        }
      ],
      "name": "StringTooLong",
      "type": "error"
    },
    {
      "anonymous": false,
      "inputs": [],
      "name": "EIP712DomainChanged",
      "type": "event"
    },
    {
      "inputs": [],
      "name": "eip712Domain",
      "outputs": [
        {
          "internalType": "bytes1",
          "name": "fields",
          "type": "bytes1"
        },
        {
          "internalType": "string",
          "name": "name",
          "type": "string"
        },
        {
          "internalType": "string",
          "name": "version",
          "type": "string"
        },
        {
          "internalType": "uint256",
          "name": "chainId",
          "type": "uint256"
        },
        {
          "internalType": "address",
          "name": "verifyingContract",
          "type": "address"
        },
        {
          "internalType": "bytes32",
          "name": "salt",
          "type": "bytes32"
        },
        {
          "internalType": "uint256[]",
          "name": "extensions",
          "type": "uint256[]"
        }
      ],
      "stateMutability": "view",
      "type": "function"
    },
    {
      "inputs": [],
      "name": "feeCollector",
      "outputs": [
        {
          "internalType": "address payable",
          "name": "",
          "type": "address"
        }
      ],
      "stateMutability": "view",
      "type": "function"
    },
    {
      "inputs": [],
      "name": "getAllTitles",
      "outputs": [
        {
          "internalType": "string[]",
          "name": "",
          "type": "string[]"
        }
      ],
      "stateMutability": "view",
      "type": "function"
    },
    {
      "inputs": [],
      "name": "getHoursSinceLastTransaction",
      "outputs": [
        {
          "internalType": "uint256",
          "name": "",
          "type": "uint256"
        }
      ],
      "stateMutability": "view",
      "type": "function"
    },
    {
      "inputs": [],
      "name": "getLatestSearch",
      "outputs": [
        {
          "internalType": "string",
          "name": "",
          "type": "string"
        }
      ],
      "stateMutability": "view",
      "type": "function"
    },
    {
      "inputs": [],
      "name": "getResitrationInfo",
      "outputs": [
        {
          "internalType": "bool",
          "name": "",
          "type": "bool"
        },
        {
          "internalType": "bool",
          "name": "",
          "type": "bool"
        }
      ],
      "stateMutability": "view",
      "type": "function"
    },
    {
      "inputs": [],
      "name": "getWallet",
      "outputs": [
        {
          "internalType": "address",
          "name": "",
          "type": "address"
        }
      ],
      "stateMutability": "view",
      "type": "function"
    },
    {
      "inputs": [
        {
          "internalType": "string",
          "name": "title",
          "type": "string"
        },
        {
          "components": [
            {
              "internalType": "bytes",
              "name": "data",
              "type": "bytes"
            }
          ],
          "internalType": "struct inEuint16",
          "name": "encryptedValue",
          "type": "tuple"
        }
      ],
      "name": "giveMeEverything",
      "outputs": [],
      "stateMutability": "nonpayable",
      "type": "function"
    },
    {
      "inputs": [
        {
          "internalType": "string",
          "name": "title",
          "type": "string"
        },
        {
          "components": [
            {
              "internalType": "bytes",
              "name": "data",
              "type": "bytes"
            }
          ],
          "internalType": "struct inEuint16",
          "name": "encryptedValue",
          "type": "tuple"
        }
      ],
      "name": "giveMeSomething",
      "outputs": [],
      "stateMutability": "nonpayable",
      "type": "function"
    },
    {
      "inputs": [],
      "name": "handleSeekFees",
      "outputs": [],
      "stateMutability": "nonpayable",
      "type": "function"
    },
    {
      "inputs": [
        {
          "internalType": "string",
          "name": "title",
          "type": "string"
        }
      ],
      "name": "myStandings",
      "outputs": [
        {
          "internalType": "string",
          "name": "",
          "type": "string"
        }
      ],
      "stateMutability": "view",
      "type": "function"
    },
    {
      "inputs": [
        {
          "internalType": "string",
          "name": "title",
          "type": "string"
        },
        {
          "components": [
            {
              "internalType": "bytes",
              "name": "data",
              "type": "bytes"
            }
          ],
          "internalType": "struct inEuint16",
          "name": "encryptedValue16",
          "type": "tuple"
        },
        {
          "internalType": "string",
          "name": "description",
          "type": "string"
        }
      ],
      "name": "newPost",
      "outputs": [],
      "stateMutability": "nonpayable",
      "type": "function"
    },
    {
      "inputs": [
        {
          "internalType": "string",
          "name": "name",
          "type": "string"
        },
        {
          "internalType": "string",
          "name": "contactEmail",
          "type": "string"
        }
      ],
      "name": "registerPoster",
      "outputs": [],
      "stateMutability": "nonpayable",
      "type": "function"
    },
    {
      "inputs": [],
      "name": "registerSeeker",
      "outputs": [],
      "stateMutability": "nonpayable",
      "type": "function"
    },
    {
      "inputs": [
        {
          "internalType": "string",
          "name": "description",
          "type": "string"
        },
        {
          "internalType": "string",
          "name": "title",
          "type": "string"
        }
      ],
      "name": "updateMyPostDescription",
      "outputs": [],
      "stateMutability": "nonpayable",
      "type": "function"
    },
    {
      "inputs": [
        {
          "internalType": "string",
          "name": "title",
          "type": "string"
        },
        {
          "components": [
            {
              "internalType": "bytes",
              "name": "data",
              "type": "bytes"
            }
          ],
          "internalType": "struct inEuint16",
          "name": "encryptedValue",
          "type": "tuple"
        }
      ],
      "name": "updateMyPostSalary",
      "outputs": [],
      "stateMutability": "nonpayable",
      "type": "function"
    },
    {
      "inputs": [],
      "name": "verifyMeAsPoster",
      "outputs": [],
      "stateMutability": "nonpayable",
      "type": "function"
    },
    {
      "inputs": [],
      "name": "verifyMeAsSeeker",
      "outputs": [],
      "stateMutability": "nonpayable",
      "type": "function"
    }
  ],
  "transactionHash": "0x40411b597209486d6ab22dd3c53018897a2bc691616c902575e3e2d6497c1b24",
  "args": [
    "0xE1F17916566Eba7ecdd79eE0a3A506Fde2c7A5Bc",
    "0xdE9B2329C64Cb04fe74b8227897C007005d93850"
  ],
  "numDeployments": 29,
  "solcInputHash": "b3710e74c5da7933d100d6e34813a428",
  "bytecode": "0x61016060405234801561001157600080fd5b506040516168c83803806168c8833981810160405281019061003391906104aa565b6040518060400160405280601181526020017f4668656e6978205065726d697373696f6e0000000000000000000000000000008152506040518060400160405280600381526020017f312e3000000000000000000000000000000000000000000000000000000000008152506100b36000836101e860201b90919060201c565b61012081815250506100cf6001826101e860201b90919060201c565b6101408181525050818051906020012060e08181525050808051906020012061010081815250504660a0818152505061010c61023860201b60201c565b608081815250503073ffffffffffffffffffffffffffffffffffffffff1660c08173ffffffffffffffffffffffffffffffffffffffff1681525050505080600260006101000a81548173ffffffffffffffffffffffffffffffffffffffff021916908373ffffffffffffffffffffffffffffffffffffffff16021790555081600360006101000a81548173ffffffffffffffffffffffffffffffffffffffff021916908373ffffffffffffffffffffffffffffffffffffffff1602179055506101db600a61029360201b60201c565b6004819055505050610baa565b600060208351101561020a57610203836102ad60201b60201c565b9050610232565b8261021a8361031560201b60201c565b6000019081610229919061073a565b5060ff60001b90505b92915050565b60007f8b73c3c69bb8fe3d512ecc4cf759cc79239f7b179b0ffacaa9a75d522b39400f60e051610100514630604051602001610278959493929190610843565b60405160208183030381529060405280519060200120905090565b60006102a682600161031f60201b60201c565b9050919050565b600080829050601f815111156102fa57826040517f305a27a90000000000000000000000000000000000000000000000000000000081526004016102f1919061091b565b60405180910390fd5b8051816103069061096d565b60001c1760001b915050919050565b6000819050919050565b60006060608073ffffffffffffffffffffffffffffffffffffffff166319e1c5c461034f866103cd60201b60201c565b856040518363ffffffff1660e01b815260040161036d929190610a3a565b600060405180830381865afa15801561038a573d6000803e3d6000fd5b505050506040513d6000823e3d601f19601f820116820180604052508101906103b39190610b61565b90506103c48161042a60201b60201c565b91505092915050565b6060602067ffffffffffffffff8111156103ea576103e96104f5565b5b6040519080825280601f01601f19166020018201604052801561041c5781602001600182028036833780820191505090505b509050816020820152919050565b600060208201519050919050565b6000604051905090565b600080fd5b600080fd5b600073ffffffffffffffffffffffffffffffffffffffff82169050919050565b60006104778261044c565b9050919050565b6104878161046c565b811461049257600080fd5b50565b6000815190506104a48161047e565b92915050565b600080604083850312156104c1576104c0610442565b5b60006104cf85828601610495565b92505060206104e085828601610495565b9150509250929050565b600081519050919050565b7f4e487b7100000000000000000000000000000000000000000000000000000000600052604160045260246000fd5b7f4e487b7100000000000000000000000000000000000000000000000000000000600052602260045260246000fd5b6000600282049050600182168061056b57607f821691505b60208210810361057e5761057d610524565b5b50919050565b60008190508160005260206000209050919050565b60006020601f8301049050919050565b600082821b905092915050565b6000600883026105e67fffffffffffffffffffffffffffffffffffffffffffffffffffffffffffffffff826105a9565b6105f086836105a9565b95508019841693508086168417925050509392505050565b6000819050919050565b6000819050919050565b600061063761063261062d84610608565b610612565b610608565b9050919050565b6000819050919050565b6106518361061c565b61066561065d8261063e565b8484546105b6565b825550505050565b600090565b61067a61066d565b610685818484610648565b505050565b5b818110156106a95761069e600082610672565b60018101905061068b565b5050565b601f8211156106ee576106bf81610584565b6106c884610599565b810160208510156106d7578190505b6106eb6106e385610599565b83018261068a565b50505b505050565b600082821c905092915050565b6000610711600019846008026106f3565b1980831691505092915050565b600061072a8383610700565b9150826002028217905092915050565b610743826104ea565b67ffffffffffffffff81111561075c5761075b6104f5565b5b6107668254610553565b6107718282856106ad565b600060209050601f8311600181146107a45760008415610792578287015190505b61079c858261071e565b865550610804565b601f1984166107b286610584565b60005b828110156107da578489015182556001820191506020850194506020810190506107b5565b868310156107f757848901516107f3601f891682610700565b8355505b6001600288020188555050505b505050505050565b6000819050919050565b61081f8161080c565b82525050565b61082e81610608565b82525050565b61083d8161046c565b82525050565b600060a0820190506108586000830188610816565b6108656020830187610816565b6108726040830186610816565b61087f6060830185610825565b61088c6080830184610834565b9695505050505050565b600082825260208201905092915050565b60005b838110156108c55780820151818401526020810190506108aa565b60008484015250505050565b6000601f19601f8301169050919050565b60006108ed826104ea565b6108f78185610896565b93506109078185602086016108a7565b610910816108d1565b840191505092915050565b6000602082019050818103600083015261093581846108e2565b905092915050565b600081519050919050565b6000819050602082019050919050565b6000610964825161080c565b80915050919050565b60006109788261093d565b8261098284610948565b905061098d81610958565b925060208210156109cd576109c87fffffffffffffffffffffffffffffffffffffffffffffffffffffffffffffffff836020036008026105a9565b831692505b5050919050565b600082825260208201905092915050565b60006109f08261093d565b6109fa81856109d4565b9350610a0a8185602086016108a7565b610a13816108d1565b840191505092915050565b600060ff82169050919050565b610a3481610a1e565b82525050565b60006040820190508181036000830152610a5481856109e5565b9050610a636020830184610a2b565b9392505050565b600080fd5b600080fd5b610a7d826108d1565b810181811067ffffffffffffffff82111715610a9c57610a9b6104f5565b5b80604052505050565b6000610aaf610438565b9050610abb8282610a74565b919050565b600067ffffffffffffffff821115610adb57610ada6104f5565b5b610ae4826108d1565b9050602081019050919050565b6000610b04610aff84610ac0565b610aa5565b905082815260208101848484011115610b2057610b1f610a6f565b5b610b2b8482856108a7565b509392505050565b600082601f830112610b4857610b47610a6a565b5b8151610b58848260208601610af1565b91505092915050565b600060208284031215610b7757610b76610442565b5b600082015167ffffffffffffffff811115610b9557610b94610447565b5b610ba184828501610b33565b91505092915050565b60805160a05160c05160e051610100516101205161014051615cd3610bf5600039600061287b0152600061284001526000505060005050600050506000505060005050615cd36000f3fe608060405234801561001057600080fd5b50600436106101165760003560e01c80637251efc3116100a2578063ab84719f11610071578063ab84719f14610276578063b08776b714610292578063b3a87c7f1461029c578063c415b95c146102b8578063f3a26efb146102d657610116565b80637251efc3146101e857806384b0196e146102065780638c530ae81461022a5780638daf06eb1461024657610116565b806326e5d083116100e957806326e5d08314610169578063350b599e1461018557806337956039146101a15780633f62c121146101bf5780634d1bfaa0146101c957610116565b80630775dc941461011b57806311ba35d21461013757806313299604146101415780631c079f861461015f575b600080fd5b610135600480360381019061013091906141ff565b6102f4565b005b61013f610545565b005b61014961074e565b60405161015691906142c1565b60405180910390f35b610167610778565b005b610183600480360381019061017e9190614300565b610871565b005b61019f600480360381019061019a91906144f2565b610e85565b005b6101a9611038565b6040516101b691906146ab565b60405180910390f35b6101c76111a7565b005b6101d16112a0565b6040516101df9291906146e8565b60405180910390f35b6101f061134b565b6040516101fd919061475b565b60405180910390f35b61020e6117a8565b60405161022197969594939291906148a8565b60405180910390f35b610244600480360381019061023f919061492c565b611852565b005b610260600480360381019061025b91906149a8565b611a37565b60405161026d919061475b565b60405180910390f35b610290600480360381019061028b91906144f2565b611b39565b005b61029a611df6565b005b6102b660048036038101906102b191906149f1565b612120565b005b6102c06121ea565b6040516102cd9190614a8e565b60405180910390f35b6102de612210565b6040516102eb9190614aa9565b60405180910390f35b6103776040518060400160405280601281526020017f5265676973746572696e6720706f73746572000000000000000000000000000081525085858080601f016020809104026020016040519081016040528093929190818152602001838380828437600081840152601f19601f82011690508083019250505050505050612302565b604051806080016040528060001515815260200160011515815260200185858080601f016020809104026020016040519081016040528093929190818152602001838380828437600081840152601f19601f82011690508083019250505050505050815260200183838080601f016020809104026020016040519081016040528093929190818152602001838380828437600081840152601f19601f82011690508083019250505050505050815250600960003373ffffffffffffffffffffffffffffffffffffffff1673ffffffffffffffffffffffffffffffffffffffff16815260200190815260200160002060008201518160000160006101000a81548160ff02191690831515021790555060208201518160000160016101000a81548160ff02191690831515021790555060408201518160010190816104ba9190614cd0565b5060608201518160020190816104d09190614cd0565b509050506008339080600181540180825580915050600190039060005260206000200160009091909190916101000a81548173ffffffffffffffffffffffffffffffffffffffff021916908373ffffffffffffffffffffffffffffffffffffffff16021790555061053f6111a7565b50505050565b6105836040518060400160405280601281526020017f5265676973746572696e67207365656b65720000000000000000000000000000815250612310565b6040518060c001604052806000151581526020016001151581526020016105aa600161231c565b815260200160008152602001600067ffffffffffffffff8111156105d1576105d06143c7565b5b6040519080825280602002602001820160405280156105ff5781602001602082028036833780820191505090505b50815260200160405180602001604052806000815250815250600b60003373ffffffffffffffffffffffffffffffffffffffff1673ffffffffffffffffffffffffffffffffffffffff16815260200190815260200160002060008201518160000160006101000a81548160ff02191690831515021790555060208201518160000160016101000a81548160ff021916908315150217905550604082015181600101556060820151816002015560808201518160030190805190602001906106c792919061411c565b5060a08201518160040190816106dd9190614cd0565b50905050600a339080600181540180825580915050600190039060005260206000200160009091909190916101000a81548173ffffffffffffffffffffffffffffffffffffffff021916908373ffffffffffffffffffffffffffffffffffffffff16021790555061074c610778565b565b6000600260009054906101000a900473ffffffffffffffffffffffffffffffffffffffff16905090565b60011515600b60003373ffffffffffffffffffffffffffffffffffffffff1673ffffffffffffffffffffffffffffffffffffffff16815260200190815260200160002060000160019054906101000a900460ff1615151461080e576040517f08c379a000000000000000000000000000000000000000000000000000000000815260040161080590614e14565b60405180910390fd5b610816612330565b600b60003373ffffffffffffffffffffffffffffffffffffffff1673ffffffffffffffffffffffffffffffffffffffff16815260200190815260200160002060000160006101000a81548160ff021916908315150217905550565b60011515600960003373ffffffffffffffffffffffffffffffffffffffff1673ffffffffffffffffffffffffffffffffffffffff16815260200190815260200160002060000160019054906101000a900460ff16151514610907576040517f08c379a00000000000000000000000000000000000000000000000000000000081526004016108fe90614ea6565b60405180910390fd5b600b60003373ffffffffffffffffffffffffffffffffffffffff1673ffffffffffffffffffffffffffffffffffffffff16815260200190815260200160002060000160009054906101000a900460ff16806109ae5750600960003373ffffffffffffffffffffffffffffffffffffffff1673ffffffffffffffffffffffffffffffffffffffff16815260200190815260200160002060000160009054906101000a900460ff165b6109ed576040517f08c379a00000000000000000000000000000000000000000000000000000000081526004016109e490614f12565b60405180910390fd5b600060078686604051610a01929190614f62565b90815260200160405180910390206001018054905003610a5a576006858590918060018154018082558091505060019003906000526020600020016000909192909192909192909192509182610a58929190614f86565b505b6000610a6e84610a6990615159565b612339565b90506000610ac03388888080601f016020809104026020016040519081016040528093929190818152602001838380828437600081840152601f19601f8201169050808301925050505050505061234f565b9050610b0e610b0860078989604051610ada929190614f62565b9081526020016040518091039020600001546005600085815260200190815260200160002060010154612382565b83612396565b60078888604051610b20929190614f62565b908152602001604051809103902060000181905550604051806040016040528085858080601f016020809104026020016040519081016040528093929190818152602001838380828437600081840152601f19601f8201169050808301925050505050505081526020018381525060056000610be0338b8b8080601f016020809104026020016040519081016040528093929190818152602001838380828437600081840152601f19601f8201169050808301925050505050505061234f565b81526020019081526020016000206000820151816000019081610c039190614cd0565b506020820151816001015590505060078787604051610c23929190614f62565b908152602001604051809103902060020160003373ffffffffffffffffffffffffffffffffffffffff1673ffffffffffffffffffffffffffffffffffffffff16815260200190815260200160002060009054906101000a900460ff16610d815760078787604051610c95929190614f62565b9081526020016040518091039020600101339080600181540180825580915050600190039060005260206000200160009091909190916101000a81548173ffffffffffffffffffffffffffffffffffffffff021916908373ffffffffffffffffffffffffffffffffffffffff160217905550600160078888604051610d1b929190614f62565b908152602001604051809103902060020160003373ffffffffffffffffffffffffffffffffffffffff1673ffffffffffffffffffffffffffffffffffffffff16815260200190815260200160002060006101000a81548160ff0219169083151502179055505b6000600360009054906101000a900473ffffffffffffffffffffffffffffffffffffffff1673ffffffffffffffffffffffffffffffffffffffff1663af575a0033600260009054906101000a900473ffffffffffffffffffffffffffffffffffffffff16610dee876123aa565b6040518463ffffffff1660e01b8152600401610e0c939291906151d0565b6020604051808303816000875af1158015610e2b573d6000803e3d6000fd5b505050506040513d601f19601f82011682018060405250810190610e4f9190615233565b90506000610e6f610e6060006123c0565b836123d490919063ffffffff16565b9050610e7a816123e8565b505050505050505050565b60011515600b60003373ffffffffffffffffffffffffffffffffffffffff1673ffffffffffffffffffffffffffffffffffffffff16815260200190815260200160002060000160019054906101000a900460ff16151514610f1b576040517f08c379a0000000000000000000000000000000000000000000000000000000008152600401610f1290614e14565b60405180910390fd5b600b60003373ffffffffffffffffffffffffffffffffffffffff1673ffffffffffffffffffffffffffffffffffffffff16815260200190815260200160002060000160009054906101000a900460ff1680610fc25750600960003373ffffffffffffffffffffffffffffffffffffffff1673ffffffffffffffffffffffffffffffffffffffff16815260200190815260200160002060000160009054906101000a900460ff165b611001576040517f08c379a0000000000000000000000000000000000000000000000000000000008152600401610ff890614f12565b60405180910390fd5b611009611df6565b6000611026836110218461101c90615159565b612339565b61249d565b50905061103381846126a0565b505050565b606060011515600b60003373ffffffffffffffffffffffffffffffffffffffff1673ffffffffffffffffffffffffffffffffffffffff16815260200190815260200160002060000160019054906101000a900460ff161515146110d0576040517f08c379a00000000000000000000000000000000000000000000000000000000081526004016110c790614e14565b60405180910390fd5b6006805480602002602001604051908101604052809291908181526020016000905b8282101561119e57838290600052602060002001805461111190614af3565b80601f016020809104026020016040519081016040528092919081815260200182805461113d90614af3565b801561118a5780601f1061115f5761010080835404028352916020019161118a565b820191906000526020600020905b81548152906001019060200180831161116d57829003601f168201915b5050505050815260200190600101906110f2565b50505050905090565b60011515600960003373ffffffffffffffffffffffffffffffffffffffff1673ffffffffffffffffffffffffffffffffffffffff16815260200190815260200160002060000160019054906101000a900460ff1615151461123d576040517f08c379a000000000000000000000000000000000000000000000000000000000815260040161123490614ea6565b60405180910390fd5b611245612330565b600960003373ffffffffffffffffffffffffffffffffffffffff1673ffffffffffffffffffffffffffffffffffffffff16815260200190815260200160002060000160006101000a81548160ff021916908315150217905550565b600080600960003373ffffffffffffffffffffffffffffffffffffffff1673ffffffffffffffffffffffffffffffffffffffff16815260200190815260200160002060000160019054906101000a900460ff16600b60003373ffffffffffffffffffffffffffffffffffffffff1673ffffffffffffffffffffffffffffffffffffffff16815260200190815260200160002060000160019054906101000a900460ff16915091509091565b606060011515600b60003373ffffffffffffffffffffffffffffffffffffffff1673ffffffffffffffffffffffffffffffffffffffff16815260200190815260200160002060000160019054906101000a900460ff161515146113e3576040517f08c379a00000000000000000000000000000000000000000000000000000000081526004016113da90614e14565b60405180910390fd5b600b60003373ffffffffffffffffffffffffffffffffffffffff1673ffffffffffffffffffffffffffffffffffffffff16815260200190815260200160002060000160009054906101000a900460ff168061148a5750600960003373ffffffffffffffffffffffffffffffffffffffff1673ffffffffffffffffffffffffffffffffffffffff16815260200190815260200160002060000160009054906101000a900460ff165b6114c9576040517f08c379a00000000000000000000000000000000000000000000000000000000081526004016114c090614f12565b60405180910390fd5b60006040518060400160405280600c81526020017f466f756e64206a6f62733a0a000000000000000000000000000000000000000081525090506000805b600b60003373ffffffffffffffffffffffffffffffffffffffff1673ffffffffffffffffffffffffffffffffffffffff16815260200190815260200160002060030180549050811015611761576001600b60003373ffffffffffffffffffffffffffffffffffffffff1673ffffffffffffffffffffffffffffffffffffffff16815260200190815260200160002060030182815481106115aa576115a9615260565b5b906000526020600020015403611754578261172d6007600b60003373ffffffffffffffffffffffffffffffffffffffff1673ffffffffffffffffffffffffffffffffffffffff16815260200190815260200160002060040160405161160f9190615312565b9081526020016040518091039020600101838154811061163257611631615260565b5b9060005260206000200160009054906101000a900473ffffffffffffffffffffffffffffffffffffffff16600b60003373ffffffffffffffffffffffffffffffffffffffff1673ffffffffffffffffffffffffffffffffffffffff16815260200190815260200160002060040180546116aa90614af3565b80601f01602080910402602001604051908101604052809291908181526020018280546116d690614af3565b80156117235780601f106116f857610100808354040283529160200191611723565b820191906000526020600020905b81548152906001019060200180831161170657829003601f168201915b5050505050612789565b60405160200161173e92919061535a565b6040516020818303038152906040529250600191505b8080600101915050611507565b50806117a0576040518060400160405280600d81526020017f4e6f206a6f627320666f756e640000000000000000000000000000000000000081525091505b819250505090565b6000606080600080600060606117bc612837565b6117c4612872565b46306000801b600067ffffffffffffffff8111156117e5576117e46143c7565b5b6040519080825280602002602001820160405280156118135781602001602082028036833780820191505090505b507f0f00000000000000000000000000000000000000000000000000000000000000959493929190965096509650965096509650965090919293949596565b60011515600960003373ffffffffffffffffffffffffffffffffffffffff1673ffffffffffffffffffffffffffffffffffffffff16815260200190815260200160002060000160019054906101000a900460ff161515146118e8576040517f08c379a00000000000000000000000000000000000000000000000000000000081526004016118df90614ea6565b60405180910390fd5b61199261197b60078585604051611900929190614f62565b908152602001604051809103902060000154600560006119643389898080601f016020809104026020016040519081016040528093929190818152602001838380828437600081840152601f19601f8201169050808301925050505050505061234f565b815260200190815260200160002060010154612382565b61198d8361198890615159565b612339565b612396565b600784846040516119a4929190614f62565b9081526020016040518091039020600001819055506119cb816119c690615159565b612339565b60056000611a1d3387878080601f016020809104026020016040519081016040528093929190818152602001838380828437600081840152601f19601f8201169050808301925050505050505061234f565b815260200190815260200160002060010181905550505050565b606060011515600960003373ffffffffffffffffffffffffffffffffffffffff1673ffffffffffffffffffffffffffffffffffffffff16815260200190815260200160002060000160019054906101000a900460ff16151514611acf576040517f08c379a0000000000000000000000000000000000000000000000000000000008152600401611ac690614ea6565b60405180910390fd5b600080611adb846128ad565b91509150600060056000611aef338861234f565b8152602001908152602001600020600101549050611b0e8184846129fe565b85604051602001611b209291906153f0565b6040516020818303038152906040529350505050919050565b60011515600b60003373ffffffffffffffffffffffffffffffffffffffff1673ffffffffffffffffffffffffffffffffffffffff16815260200190815260200160002060000160019054906101000a900460ff16151514611bcf576040517f08c379a0000000000000000000000000000000000000000000000000000000008152600401611bc690614e14565b60405180910390fd5b600b60003373ffffffffffffffffffffffffffffffffffffffff1673ffffffffffffffffffffffffffffffffffffffff16815260200190815260200160002060000160009054906101000a900460ff1680611c765750600960003373ffffffffffffffffffffffffffffffffffffffff1673ffffffffffffffffffffffffffffffffffffffff16815260200190815260200160002060000160009054906101000a900460ff165b611cb5576040517f08c379a0000000000000000000000000000000000000000000000000000000008152600401611cac90614f12565b60405180910390fd5b611cbd611df6565b600080611cdb84611cd685611cd190615159565b612339565b61249d565b9150915060008251118015611cf05750600081115b15611d0a57611d0782611d0283612b29565b612bab565b91505b611d686040518060400160405280600981526020017f536f6d657468696e67000000000000000000000000000000000000000000000081525083604051602001611d5491906154af565b604051602081830303815290604052612302565b611da76040518060400160405280600981526020017f536f6d657468696e67000000000000000000000000000000000000000000000081525082612c9c565b611de66040518060400160405280600981526020017f536f6d657468696e67000000000000000000000000000000000000000000000081525085612302565b611df082856126a0565b50505050565b60011515600b60003373ffffffffffffffffffffffffffffffffffffffff1673ffffffffffffffffffffffffffffffffffffffff16815260200190815260200160002060000160019054906101000a900460ff16151514611e8c576040517f08c379a0000000000000000000000000000000000000000000000000000000008152600401611e8390614e14565b60405180910390fd5b600b60003373ffffffffffffffffffffffffffffffffffffffff1673ffffffffffffffffffffffffffffffffffffffff16815260200190815260200160002060000160009054906101000a900460ff1680611f335750600960003373ffffffffffffffffffffffffffffffffffffffff1673ffffffffffffffffffffffffffffffffffffffff16815260200190815260200160002060000160009054906101000a900460ff165b611f72576040517f08c379a0000000000000000000000000000000000000000000000000000000008152600401611f6990614f12565b60405180910390fd5b611f7a612cb2565b6000600360009054906101000a900473ffffffffffffffffffffffffffffffffffffffff1673ffffffffffffffffffffffffffffffffffffffff1663af575a0033600260009054906101000a900473ffffffffffffffffffffffffffffffffffffffff1661203d612038600b60003373ffffffffffffffffffffffffffffffffffffffff1673ffffffffffffffffffffffffffffffffffffffff16815260200190815260200160002060010154600454612dab90919063ffffffff16565b6123aa565b6040518463ffffffff1660e01b815260040161205b939291906151d0565b6020604051808303816000875af115801561207a573d6000803e3d6000fd5b505050506040513d601f19601f8201168201806040525081019061209e9190615233565b90506120f96040518060400160405280600481526020017f46656573000000000000000000000000000000000000000000000000000000008152506120e283612dbf565b6fffffffffffffffffffffffffffffffff16612c9c565b61211d61211861210960006123c0565b836123d490919063ffffffff16565b6123e8565b50565b60011515600960003373ffffffffffffffffffffffffffffffffffffffff1673ffffffffffffffffffffffffffffffffffffffff16815260200190815260200160002060000160019054906101000a900460ff161515146121b6576040517f08c379a00000000000000000000000000000000000000000000000000000000081526004016121ad90614ea6565b60405180910390fd5b8282600560006121c6338661234f565b815260200190815260200160002060000191826121e4929190614f86565b50505050565b600260009054906101000a900473ffffffffffffffffffffffffffffffffffffffff1681565b600080600b60003373ffffffffffffffffffffffffffffffffffffffff1673ffffffffffffffffffffffffffffffffffffffff1681526020019081526020016000206002015403612296576040517f08c379a000000000000000000000000000000000000000000000000000000000815260040161228d90615512565b60405180910390fd5b6000600b60003373ffffffffffffffffffffffffffffffffffffffff1673ffffffffffffffffffffffffffffffffffffffff16815260200190815260200160002060020154426122e69190615561565b90506000610e10826122f891906155c4565b9050809250505090565b61230c8282612dd1565b5050565b61231981612e73565b50565b6000612329826001612ee0565b9050919050565b60006001905090565b60006123488260000151612f82565b9050919050565b6000828260405160200161236492919061563d565b60405160208183030381529060405280519060200120905092915050565b600061238e8383612f96565b905092915050565b60006123a2838361300f565b905092915050565b60006123b96001836004613087565b9050919050565b60006123cd826004612ee0565b9050919050565b60006123e0838361312c565b905092915050565b6123f1816131a5565b612402576123ff60006131b2565b90505b60008190506000612412826131c6565b9050608073ffffffffffffffffffffffffffffffffffffffff16637d23f1db600d836040518363ffffffff1660e01b81526004016124519291906156d6565b600060405180830381865afa15801561246e573d6000803e3d6000fd5b505050506040513d6000823e3d601f19601f820116820180604052508101906124979190615776565b50505050565b60606000806007856040516124b291906157bf565b90815260200160405180910390206001018054905067ffffffffffffffff8111156124e0576124df6143c7565b5b60405190808252806020026020018201604052801561250e5781602001602082028036833780820191505090505b5090506000805b60078760405161252591906157bf565b90815260200160405180910390206001018054905081101561269057600060078860405161255391906157bf565b9081526020016040518091039020600101828154811061257657612575615260565b5b9060005260206000200160009054906101000a900473ffffffffffffffffffffffffffffffffffffffff16905060006125d7600560006125b6858d61234f565b8152602001908152602001600020600101548961322390919063ffffffff16565b9050600115156125e682613237565b15150361265f5761262b6040518060400160405280600681526020017f6675636b6d650000000000000000000000000000000000000000000000000000815250612310565b60018584815181106126405761263f615260565b5b6020026020010181815250508380612657906157d6565b945050612681565b600085848151811061267457612673615260565b5b6020026020010181815250505b50508080600101915050612515565b5081819350935050509250929050565b6126de6040518060400160405280600181526020017f3100000000000000000000000000000000000000000000000000000000000000815250612310565b81600b60003373ffffffffffffffffffffffffffffffffffffffff1673ffffffffffffffffffffffffffffffffffffffff168152602001908152602001600020600301908051906020019061273492919061411c565b5080600b60003373ffffffffffffffffffffffffffffffffffffffff1673ffffffffffffffffffffffffffffffffffffffff16815260200190815260200160002060040190816127849190614cd0565b505050565b606060011515600b60003373ffffffffffffffffffffffffffffffffffffffff1673ffffffffffffffffffffffffffffffffffffffff16815260200190815260200160002060000160019054906101000a900460ff16151514612821576040517f08c379a000000000000000000000000000000000000000000000000000000000815260040161281890614e14565b60405180910390fd5b61282f6005600985856132fa565b905092915050565b606061286d60007f00000000000000000000000000000000000000000000000000000000000000006135d190919063ffffffff16565b905090565b60606128a860017f00000000000000000000000000000000000000000000000000000000000000006135d190919063ffffffff16565b905090565b60008060011515600960003373ffffffffffffffffffffffffffffffffffffffff1673ffffffffffffffffffffffffffffffffffffffff16815260200190815260200160002060000160019054906101000a900460ff16151514612946576040517f08c379a000000000000000000000000000000000000000000000000000000000815260040161293d90614ea6565b60405180910390fd5b600061299f60078560405161295b91906157bf565b90815260200160405180910390206000015461299a60078760405161298091906157bf565b90815260200160405180910390206001018054905061231c565b613681565b905060006129bf6129b0600561231c565b8361369590919063ffffffff16565b905060006129d682846136a990919063ffffffff16565b905060006129ed83856136bd90919063ffffffff16565b905081819550955050505050915091565b60606000612a42612a1886866136d190919063ffffffff16565b612a22600261231c565b612a3d612a3889886136e590919063ffffffff16565b6136f9565b61370f565b90506000612a4f8261378d565b905060028161ffff1603612a9c576040518060400160405280600581526020017f41626f766500000000000000000000000000000000000000000000000000000081525092505050612b22565b60018161ffff1603612ae7576040518060400160405280600581526020017f42656c6f7700000000000000000000000000000000000000000000000000000081525092505050612b22565b6040518060400160405280600681526020017f57697468696e0000000000000000000000000000000000000000000000000000815250925050505b9392505050565b6000808211612b6d576040517f08c379a0000000000000000000000000000000000000000000000000000000008152600401612b649061586a565b60405180910390fd5b814233604051602001612b819291906158ab565b6040516020818303038152906040528051906020012060001c612ba491906158d7565b9050919050565b6060600080845167ffffffffffffffff811115612bcb57612bca6143c7565b5b604051908082528060200260200182016040528015612bf95781602001602082028036833780820191505090505b50905060005b8551811015612c90576000828281518110612c1d57612c1c615260565b5b6020026020010181815250506001868281518110612c3e57612c3d615260565b5b602002602001015103612c8357848303612c74576001828281518110612c6757612c66615260565b5b6020026020010181815250505b8280612c7f906157d6565b9350505b8080600101915050612bff565b50809250505092915050565b612cae82612ca983613850565b612dd1565b5050565b6000600b60003373ffffffffffffffffffffffffffffffffffffffff1673ffffffffffffffffffffffffffffffffffffffff1681526020019081526020016000206002015414158015612d0c57506018612d0a612210565b115b15612d6257612d1b600061231c565b600b60003373ffffffffffffffffffffffffffffffffffffffff1673ffffffffffffffffffffffffffffffffffffffff168152602001908152602001600020600101819055505b42600b60003373ffffffffffffffffffffffffffffffffffffffff1673ffffffffffffffffffffffffffffffffffffffff16815260200190815260200160002060020181905550565b6000612db78383613862565b905092915050565b6000612dca826138db565b9050919050565b60006040518060400160405280600481526020017f70303a2000000000000000000000000000000000000000000000000000000000815250836040518060400160405280600581526020017f2070313a2000000000000000000000000000000000000000000000000000000081525084604051602001612e549493929190615908565b6040516020818303038152906040529050612e6e81612e73565b505050565b608073ffffffffffffffffffffffffffffffffffffffff166341304fac826040518263ffffffff1660e01b8152600401612ead919061475b565b60006040518083038186803b158015612ec557600080fd5b505afa158015612ed9573d6000803e3d6000fd5b5050505050565b60006060608073ffffffffffffffffffffffffffffffffffffffff166319e1c5c4612f0a866131c6565b856040518363ffffffff1660e01b8152600401612f28929190615946565b600060405180830381865afa158015612f45573d6000803e3d6000fd5b505050506040513d6000823e3d601f19601f82011682018060405250810190612f6e9190615776565b9050612f798161399e565b91505092915050565b6000612f8f8260016139ac565b9050919050565b6000612fa183613a46565b612fb257612faf600061231c565b92505b612fbb82613a46565b612fcc57612fc9600061231c565b91505b60008390506000839050600061300160018484608073ffffffffffffffffffffffffffffffffffffffff1663cc2cbeff613a53565b905080935050505092915050565b600061301a83613a46565b61302b57613028600061231c565b92505b61303482613a46565b61304557613042600061231c565b91505b60008390506000839050600061307960018484608073ffffffffffffffffffffffffffffffffffffffff16622df619613a53565b905080935050505092915050565b60006060608073ffffffffffffffffffffffffffffffffffffffff16634a5a1117866130b2876131c6565b866040518463ffffffff1660e01b81526004016130d193929190615976565b600060405180830381865afa1580156130ee573d6000803e3d6000fd5b505050506040513d6000823e3d601f19601f820116820180604052508101906131179190615776565b90506131228161399e565b9150509392505050565b600061313783613ae7565b6131485761314560006123c0565b92505b61315182613ae7565b6131625761315f60006123c0565b91505b60008390506000839050600061319760048484608073ffffffffffffffffffffffffffffffffffffffff1663874b1c10613a53565b905080935050505092915050565b6000808214159050919050565b60006131bf82600d612ee0565b9050919050565b6060602067ffffffffffffffff8111156131e3576131e26143c7565b5b6040519080825280601f01601f1916602001820160405280156132155781602001600182028036833780820191505090505b509050816020820152919050565b600061322f8383613af4565b905092915050565b6000613242826131a5565b6132535761325060006131b2565b91505b60008290506000613263826131c6565b90506000608073ffffffffffffffffffffffffffffffffffffffff166373cc0154600d846040518363ffffffff1660e01b81526004016132a49291906156d6565b602060405180830381865afa1580156132c1573d6000803e3d6000fd5b505050506040513d601f19601f820116820180604052508101906132e591906159e0565b90506132f081613b6d565b9350505050919050565b6060600085600061330b868661234f565b815260200190815260200160002060405180604001604052908160008201805461333490614af3565b80601f016020809104026020016040519081016040528092919081815260200182805461336090614af3565b80156133ad5780601f10613382576101008083540402835291602001916133ad565b820191906000526020600020905b81548152906001019060200180831161339057829003601f168201915b50505050508152602001600182015481525050905060008560008673ffffffffffffffffffffffffffffffffffffffff1673ffffffffffffffffffffffffffffffffffffffff1681526020019081526020016000206040518060800160405290816000820160009054906101000a900460ff161515151581526020016000820160019054906101000a900460ff1615151515815260200160018201805461345390614af3565b80601f016020809104026020016040519081016040528092919081815260200182805461347f90614af3565b80156134cc5780601f106134a1576101008083540402835291602001916134cc565b820191906000526020600020905b8154815290600101906020018083116134af57829003601f168201915b505050505081526020016002820180546134e590614af3565b80601f016020809104026020016040519081016040528092919081815260200182805461351190614af3565b801561355e5780601f106135335761010080835404028352916020019161355e565b820191906000526020600020905b81548152906001019060200180831161354157829003601f168201915b50505050508152505090506000151581602001511515036135925760405180602001604052806000815250925050506135c9565b838260000151826040015183606001516040516020016135b59493929190615b89565b604051602081830303815290604052925050505b949350505050565b606060ff60001b83146135ee576135e783613b79565b905061367b565b8180546135fa90614af3565b80601f016020809104026020016040519081016040528092919081815260200182805461362690614af3565b80156136735780601f1061364857610100808354040283529160200191613673565b820191906000526020600020905b81548152906001019060200180831161365657829003601f168201915b505050505090505b92915050565b600061368d8383613bed565b905092915050565b60006136a18383613c66565b905092915050565b60006136b5838361300f565b905092915050565b60006136c98383612f96565b905092915050565b60006136dd8383613cdf565b905092915050565b60006136f18383613d58565b905092915050565b6000613708600d836001613087565b9050919050565b600061371a846131a5565b61372b5761372860006131b2565b93505b61373483613a46565b61374557613742600061231c565b92505b61374e82613a46565b61375f5761375c600061231c565b91505b600084905060008490506000849050600061377d6001858585613dd1565b9050809450505050509392505050565b600061379882613a46565b6137a9576137a6600061231c565b91505b600082905060006137b9826131c6565b90506000608073ffffffffffffffffffffffffffffffffffffffff166373cc01546001846040518363ffffffff1660e01b81526004016137fa9291906156d6565b602060405180830381865afa158015613817573d6000803e3d6000fd5b505050506040513d601f19601f8201168201806040525081019061383b91906159e0565b905061384681613e89565b9350505050919050565b606061385b82613e93565b9050919050565b600061386d83613a46565b61387e5761387b600061231c565b92505b61388782613a46565b61389857613895600061231c565b91505b6000839050600083905060006138cd60018484608073ffffffffffffffffffffffffffffffffffffffff1663ae42450a613a53565b905080935050505092915050565b60006138e682613ae7565b6138f7576138f460006123c0565b91505b60008290506000613907826131c6565b90506000608073ffffffffffffffffffffffffffffffffffffffff166373cc01546004846040518363ffffffff1660e01b81526004016139489291906156d6565b602060405180830381865afa158015613965573d6000803e3d6000fd5b505050506040513d601f19601f8201168201806040525081019061398991906159e0565b905061399481613f61565b9350505050919050565b600060208201519050919050565b60006060608073ffffffffffffffffffffffffffffffffffffffff16635fa55ca784866040518363ffffffff1660e01b81526004016139ec9291906156d6565b600060405180830381865afa158015613a09573d6000803e3d6000fd5b505050506040513d6000823e3d601f19601f82011682018060405250810190613a329190615776565b9050613a3d8161399e565b91505092915050565b6000808214159050919050565b60006060838388613a63896131c6565b613a6c896131c6565b6040518463ffffffff1660e01b8152600401613a8a93929190615bfe565b600060405180830381865afa158015613aa7573d6000803e3d6000fd5b505050506040513d6000823e3d601f19601f82011682018060405250810190613ad09190615776565b9050613adb81613f6b565b91505095945050505050565b6000808214159050919050565b6000613aff83613a46565b613b1057613b0d600061231c565b92505b613b1982613a46565b613b2a57613b27600061231c565b91505b600083905060008390506000613b5f60018484608073ffffffffffffffffffffffffffffffffffffffff1663eb274b77613a53565b905080935050505092915050565b60008082119050919050565b60606000613b8683613f79565b90506000602067ffffffffffffffff811115613ba557613ba46143c7565b5b6040519080825280601f01601f191660200182016040528015613bd75781602001600182028036833780820191505090505b5090508181528360208201528092505050919050565b6000613bf883613a46565b613c0957613c06600061231c565b92505b613c1282613a46565b613c2357613c20600061231c565b91505b600083905060008390506000613c5860018484608073ffffffffffffffffffffffffffffffffffffffff16631f4cda2f613a53565b905080935050505092915050565b6000613c7183613a46565b613c8257613c7f600061231c565b92505b613c8b82613a46565b613c9c57613c99600061231c565b91505b600083905060008390506000613cd160018484608073ffffffffffffffffffffffffffffffffffffffff16639944d12d613a53565b905080935050505092915050565b6000613cea83613a46565b613cfb57613cf8600061231c565b92505b613d0482613a46565b613d1557613d12600061231c565b91505b600083905060008390506000613d4a60018484608073ffffffffffffffffffffffffffffffffffffffff1663b9c7a54b613a53565b905080935050505092915050565b6000613d6383613a46565b613d7457613d71600061231c565b92505b613d7d82613a46565b613d8e57613d8b600061231c565b91505b600083905060008390506000613dc360018484608073ffffffffffffffffffffffffffffffffffffffff1663874b1c10613a53565b905080935050505092915050565b60006060608073ffffffffffffffffffffffffffffffffffffffff1663c2d9695287613dfc886131c6565b613e05886131c6565b613e0e886131c6565b6040518563ffffffff1660e01b8152600401613e2d9493929190615c43565b600060405180830381865afa158015613e4a573d6000803e3d6000fd5b505050506040513d6000823e3d601f19601f82011682018060405250810190613e739190615776565b9050613e7e8161399e565b915050949350505050565b6000819050919050565b606060006001613ea284613fc9565b01905060008167ffffffffffffffff811115613ec157613ec06143c7565b5b6040519080825280601f01601f191660200182016040528015613ef35781602001600182028036833780820191505090505b509050600082602001820190505b600115613f56578080600190039150507f3031323334353637383961626364656600000000000000000000000000000000600a86061a8153600a8581613f4a57613f49615595565b5b04945060008503613f01575b819350505050919050565b6000819050919050565b600060208201519050919050565b60008060ff8360001c169050601f811115613fc0576040517fb3512b0c00000000000000000000000000000000000000000000000000000000815260040160405180910390fd5b80915050919050565b600080600090507a184f03e93ff9f4daa797ed6e38ed64bf6a1f0100000000000000008310614027577a184f03e93ff9f4daa797ed6e38ed64bf6a1f010000000000000000838161401d5761401c615595565b5b0492506040810190505b6d04ee2d6d415b85acef81000000008310614064576d04ee2d6d415b85acef8100000000838161405a57614059615595565b5b0492506020810190505b662386f26fc10000831061409357662386f26fc10000838161408957614088615595565b5b0492506010810190505b6305f5e10083106140bc576305f5e10083816140b2576140b1615595565b5b0492506008810190505b61271083106140e15761271083816140d7576140d6615595565b5b0492506004810190505b6064831061410457606483816140fa576140f9615595565b5b0492506002810190505b600a8310614113576001810190505b80915050919050565b828054828255906000526020600020908101928215614158579160200282015b8281111561415757825182559160200191906001019061413c565b5b5090506141659190614169565b5090565b5b8082111561418257600081600090555060010161416a565b5090565b6000604051905090565b600080fd5b600080fd5b600080fd5b600080fd5b600080fd5b60008083601f8401126141bf576141be61419a565b5b8235905067ffffffffffffffff8111156141dc576141db61419f565b5b6020830191508360018202830111156141f8576141f76141a4565b5b9250929050565b6000806000806040858703121561421957614218614190565b5b600085013567ffffffffffffffff81111561423757614236614195565b5b614243878288016141a9565b9450945050602085013567ffffffffffffffff81111561426657614265614195565b5b614272878288016141a9565b925092505092959194509250565b600073ffffffffffffffffffffffffffffffffffffffff82169050919050565b60006142ab82614280565b9050919050565b6142bb816142a0565b82525050565b60006020820190506142d660008301846142b2565b92915050565b600080fd5b6000602082840312156142f7576142f66142dc565b5b81905092915050565b60008060008060006060868803121561431c5761431b614190565b5b600086013567ffffffffffffffff81111561433a57614339614195565b5b614346888289016141a9565b9550955050602086013567ffffffffffffffff81111561436957614368614195565b5b614375888289016142e1565b935050604086013567ffffffffffffffff81111561439657614395614195565b5b6143a2888289016141a9565b92509250509295509295909350565b600080fd5b6000601f19601f8301169050919050565b7f4e487b7100000000000000000000000000000000000000000000000000000000600052604160045260246000fd5b6143ff826143b6565b810181811067ffffffffffffffff8211171561441e5761441d6143c7565b5b80604052505050565b6000614431614186565b905061443d82826143f6565b919050565b600067ffffffffffffffff82111561445d5761445c6143c7565b5b614466826143b6565b9050602081019050919050565b82818337600083830152505050565b600061449561449084614442565b614427565b9050828152602081018484840111156144b1576144b06143b1565b5b6144bc848285614473565b509392505050565b600082601f8301126144d9576144d861419a565b5b81356144e9848260208601614482565b91505092915050565b6000806040838503121561450957614508614190565b5b600083013567ffffffffffffffff81111561452757614526614195565b5b614533858286016144c4565b925050602083013567ffffffffffffffff81111561455457614553614195565b5b614560858286016142e1565b9150509250929050565b600081519050919050565b600082825260208201905092915050565b6000819050602082019050919050565b600081519050919050565b600082825260208201905092915050565b60005b838110156145d05780820151818401526020810190506145b5565b60008484015250505050565b60006145e782614596565b6145f181856145a1565b93506146018185602086016145b2565b61460a816143b6565b840191505092915050565b600061462183836145dc565b905092915050565b6000602082019050919050565b60006146418261456a565b61464b8185614575565b93508360208202850161465d85614586565b8060005b85811015614699578484038952815161467a8582614615565b945061468583614629565b925060208a01995050600181019050614661565b50829750879550505050505092915050565b600060208201905081810360008301526146c58184614636565b905092915050565b60008115159050919050565b6146e2816146cd565b82525050565b60006040820190506146fd60008301856146d9565b61470a60208301846146d9565b9392505050565b600082825260208201905092915050565b600061472d82614596565b6147378185614711565b93506147478185602086016145b2565b614750816143b6565b840191505092915050565b600060208201905081810360008301526147758184614722565b905092915050565b60007fff0000000000000000000000000000000000000000000000000000000000000082169050919050565b6147b28161477d565b82525050565b6000819050919050565b6147cb816147b8565b82525050565b6000819050919050565b6147e4816147d1565b82525050565b600081519050919050565b600082825260208201905092915050565b6000819050602082019050919050565b61481f816147b8565b82525050565b60006148318383614816565b60208301905092915050565b6000602082019050919050565b6000614855826147ea565b61485f81856147f5565b935061486a83614806565b8060005b8381101561489b5781516148828882614825565b975061488d8361483d565b92505060018101905061486e565b5085935050505092915050565b600060e0820190506148bd600083018a6147a9565b81810360208301526148cf8189614722565b905081810360408301526148e38188614722565b90506148f260608301876147c2565b6148ff60808301866142b2565b61490c60a08301856147db565b81810360c083015261491e818461484a565b905098975050505050505050565b60008060006040848603121561494557614944614190565b5b600084013567ffffffffffffffff81111561496357614962614195565b5b61496f868287016141a9565b9350935050602084013567ffffffffffffffff81111561499257614991614195565b5b61499e868287016142e1565b9150509250925092565b6000602082840312156149be576149bd614190565b5b600082013567ffffffffffffffff8111156149dc576149db614195565b5b6149e8848285016144c4565b91505092915050565b600080600060408486031215614a0a57614a09614190565b5b600084013567ffffffffffffffff811115614a2857614a27614195565b5b614a34868287016141a9565b9350935050602084013567ffffffffffffffff811115614a5757614a56614195565b5b614a63868287016144c4565b9150509250925092565b6000614a7882614280565b9050919050565b614a8881614a6d565b82525050565b6000602082019050614aa36000830184614a7f565b92915050565b6000602082019050614abe60008301846147c2565b92915050565b7f4e487b7100000000000000000000000000000000000000000000000000000000600052602260045260246000fd5b60006002820490506001821680614b0b57607f821691505b602082108103614b1e57614b1d614ac4565b5b50919050565b60008190508160005260206000209050919050565b60006020601f8301049050919050565b600082821b905092915050565b600060088302614b867fffffffffffffffffffffffffffffffffffffffffffffffffffffffffffffffff82614b49565b614b908683614b49565b95508019841693508086168417925050509392505050565b6000819050919050565b6000614bcd614bc8614bc3846147b8565b614ba8565b6147b8565b9050919050565b6000819050919050565b614be783614bb2565b614bfb614bf382614bd4565b848454614b56565b825550505050565b600090565b614c10614c03565b614c1b818484614bde565b505050565b5b81811015614c3f57614c34600082614c08565b600181019050614c21565b5050565b601f821115614c8457614c5581614b24565b614c5e84614b39565b81016020851015614c6d578190505b614c81614c7985614b39565b830182614c20565b50505b505050565b600082821c905092915050565b6000614ca760001984600802614c89565b1980831691505092915050565b6000614cc08383614c96565b9150826002028217905092915050565b614cd982614596565b67ffffffffffffffff811115614cf257614cf16143c7565b5b614cfc8254614af3565b614d07828285614c43565b600060209050601f831160018114614d3a5760008415614d28578287015190505b614d328582614cb4565b865550614d9a565b601f198416614d4886614b24565b60005b82811015614d7057848901518255600182019150602085019450602081019050614d4b565b86831015614d8d5784890151614d89601f891682614c96565b8355505b6001600288020188555050505b505050505050565b7f4f6e6c792072656769737465726564207365656b6572732063616e207065726660008201527f6f726d207468697320616374696f6e0000000000000000000000000000000000602082015250565b6000614dfe602f83614711565b9150614e0982614da2565b604082019050919050565b60006020820190508181036000830152614e2d81614df1565b9050919050565b7f4f6e6c792074686520706f737465722063616e20706572666f726d207468697360008201527f20616374696f6e2c206e6f742072656769737465726564000000000000000000602082015250565b6000614e90603783614711565b9150614e9b82614e34565b604082019050919050565b60006020820190508181036000830152614ebf81614e83565b9050919050565b7f4b594320766572696669636174696f6e20726571756972656400000000000000600082015250565b6000614efc601983614711565b9150614f0782614ec6565b602082019050919050565b60006020820190508181036000830152614f2b81614eef565b9050919050565b600081905092915050565b6000614f498385614f32565b9350614f56838584614473565b82840190509392505050565b6000614f6f828486614f3d565b91508190509392505050565b600082905092915050565b614f908383614f7b565b67ffffffffffffffff811115614fa957614fa86143c7565b5b614fb38254614af3565b614fbe828285614c43565b6000601f831160018114614fed5760008415614fdb578287013590505b614fe58582614cb4565b86555061504d565b601f198416614ffb86614b24565b60005b8281101561502357848901358255600182019150602085019450602081019050614ffe565b86831015615040578489013561503c601f891682614c96565b8355505b6001600288020188555050505b50505050505050565b600080fd5b600080fd5b600067ffffffffffffffff82111561507b5761507a6143c7565b5b615084826143b6565b9050602081019050919050565b60006150a461509f84615060565b614427565b9050828152602081018484840111156150c0576150bf6143b1565b5b6150cb848285614473565b509392505050565b600082601f8301126150e8576150e761419a565b5b81356150f8848260208601615091565b91505092915050565b60006020828403121561511757615116615056565b5b6151216020614427565b9050600082013567ffffffffffffffff8111156151415761514061505b565b5b61514d848285016150d3565b60008301525092915050565b60006151653683615101565b9050919050565b600061518761518261517d84614280565b614ba8565b614280565b9050919050565b60006151998261516c565b9050919050565b60006151ab8261518e565b9050919050565b6151bb816151a0565b82525050565b6151ca81614bb2565b82525050565b60006060820190506151e560008301866142b2565b6151f260208301856151b2565b6151ff60408301846151c1565b949350505050565b615210816147b8565b811461521b57600080fd5b50565b60008151905061522d81615207565b92915050565b60006020828403121561524957615248614190565b5b60006152578482850161521e565b91505092915050565b7f4e487b7100000000000000000000000000000000000000000000000000000000600052603260045260246000fd5b6000815461529c81614af3565b6152a68186614f32565b945060018216600081146152c157600181146152d657615309565b60ff1983168652811515820286019350615309565b6152df85614b24565b60005b83811015615301578154818901526001820191506020810190506152e2565b838801955050505b50505092915050565b600061531e828461528f565b915081905092915050565b600061533482614596565b61533e8185614f32565b935061534e8185602086016145b2565b80840191505092915050565b60006153668285615329565b91506153728284615329565b91508190509392505050565b7f207468652073616c6172792061766572616765206f6620746865207469746c6560008201527f3a20000000000000000000000000000000000000000000000000000000000000602082015250565b60006153da602283614f32565b91506153e58261537e565b602282019050919050565b60006153fc8285615329565b9150615407826153cd565b91506154138284615329565b91508190509392505050565b600081905092915050565b615433816147b8565b82525050565b6000615445838361542a565b60208301905092915050565b600061545c826147ea565b615466818561541f565b935061547183614806565b8060005b838110156154a25781516154898882615439565b97506154948361483d565b925050600181019050615475565b5085935050505092915050565b60006154bb8284615451565b915081905092915050565b7f4e6f2070726576696f7573207472616e73616374696f6e20666f756e64000000600082015250565b60006154fc601d83614711565b9150615507826154c6565b602082019050919050565b6000602082019050818103600083015261552b816154ef565b9050919050565b7f4e487b7100000000000000000000000000000000000000000000000000000000600052601160045260246000fd5b600061556c826147b8565b9150615577836147b8565b925082820390508181111561558f5761558e615532565b5b92915050565b7f4e487b7100000000000000000000000000000000000000000000000000000000600052601260045260246000fd5b60006155cf826147b8565b91506155da836147b8565b9250826155ea576155e9615595565b5b828204905092915050565b60008160601b9050919050565b600061560d826155f5565b9050919050565b600061561f82615602565b9050919050565b615637615632826142a0565b615614565b82525050565b60006156498285615626565b6014820191506156598284615329565b91508190509392505050565b600060ff82169050919050565b61567b81615665565b82525050565b600081519050919050565b600082825260208201905092915050565b60006156a882615681565b6156b2818561568c565b93506156c28185602086016145b2565b6156cb816143b6565b840191505092915050565b60006040820190506156eb6000830185615672565b81810360208301526156fd818461569d565b90509392505050565b600061571961571484615060565b614427565b905082815260208101848484011115615735576157346143b1565b5b6157408482856145b2565b509392505050565b600082601f83011261575d5761575c61419a565b5b815161576d848260208601615706565b91505092915050565b60006020828403121561578c5761578b614190565b5b600082015167ffffffffffffffff8111156157aa576157a9614195565b5b6157b684828501615748565b91505092915050565b60006157cb8284615329565b915081905092915050565b60006157e1826147b8565b91507fffffffffffffffffffffffffffffffffffffffffffffffffffffffffffffffff820361581357615812615532565b5b600182019050919050565b7f4d6f64756c7573206d7573742062652067726561746572207468616e20300000600082015250565b6000615854601e83614711565b915061585f8261581e565b602082019050919050565b6000602082019050818103600083015261588381615847565b9050919050565b6000819050919050565b6158a56158a0826147b8565b61588a565b82525050565b60006158b78285615894565b6020820191506158c78284615626565b6014820191508190509392505050565b60006158e2826147b8565b91506158ed836147b8565b9250826158fd576158fc615595565b5b828206905092915050565b60006159148287615329565b91506159208286615329565b915061592c8285615329565b91506159388284615329565b915081905095945050505050565b60006040820190508181036000830152615960818561569d565b905061596f6020830184615672565b9392505050565b600060608201905061598b6000830186615672565b818103602083015261599d818561569d565b90506159ac6040830184615672565b949350505050565b6159bd816147b8565b81146159c857600080fd5b50565b6000815190506159da816159b4565b92915050565b6000602082840312156159f6576159f5614190565b5b6000615a04848285016159cb565b91505092915050565b7f095469746c653a20000000000000000000000000000000000000000000000000600082015250565b6000615a43600883614f32565b9150615a4e82615a0d565b600882019050919050565b7f0a09094465736372697074696f6e3a2000000000000000000000000000000000600082015250565b6000615a8f601083614f32565b9150615a9a82615a59565b601082019050919050565b7f0a0909436f6d70616e793a200000000000000000000000000000000000000000600082015250565b6000615adb600c83614f32565b9150615ae682615aa5565b600c82019050919050565b7f0a0909436f6e746163743a200000000000000000000000000000000000000000600082015250565b6000615b27600c83614f32565b9150615b3282615af1565b600c82019050919050565b7f0a00000000000000000000000000000000000000000000000000000000000000600082015250565b6000615b73600183614f32565b9150615b7e82615b3d565b600182019050919050565b6000615b9482615a36565b9150615ba08287615329565b9150615bab82615a82565b9150615bb78286615329565b9150615bc282615ace565b9150615bce8285615329565b9150615bd982615b1a565b9150615be58284615329565b9150615bf082615b66565b915081905095945050505050565b6000606082019050615c136000830186615672565b8181036020830152615c25818561569d565b90508181036040830152615c39818461569d565b9050949350505050565b6000608082019050615c586000830187615672565b8181036020830152615c6a818661569d565b90508181036040830152615c7e818561569d565b90508181036060830152615c92818461569d565b90509594505050505056fea26469706673582212209c0f3bf0bb2ab7624a9dd58e23f37ed436b32bc42f70004c9ed640bb9f8968b764736f6c63430008190033",
  "devdoc": {
    "events": {
      "EIP712DomainChanged()": {
        "details": "MAY be emitted to signal that the domain could have changed."
      }
    },
    "kind": "dev",
    "methods": {
      "eip712Domain()": {
        "details": "See {IERC-5267}."
      }
    },
    "version": 1
  },
  "userdoc": {
    "errors": {
      "SignerNotMessageSender()": [
        {
          "notice": "Emitted when the signer is not the message sender"
        }
      ],
      "SignerNotOwner()": [
        {
          "notice": "Emitted when the signer is not the specified owner"
        }
      ]
    },
    "kind": "user",
    "methods": {},
    "version": 1
  },
  "storageLayout": {
    "storage": [
      {
        "astId": 21351,
        "contract": "contracts/not_fhrier.sol:NotFHriEr",
        "label": "_nameFallback",
        "offset": 0,
        "slot": "0",
        "type": "t_string_storage"
      },
      {
        "astId": 21353,
        "contract": "contracts/not_fhrier.sol:NotFHriEr",
        "label": "_versionFallback",
        "offset": 0,
        "slot": "1",
        "type": "t_string_storage"
      },
      {
        "astId": 22956,
        "contract": "contracts/not_fhrier.sol:NotFHriEr",
        "label": "feeCollector",
        "offset": 0,
        "slot": "2",
        "type": "t_address_payable"
      },
      {
        "astId": 22959,
        "contract": "contracts/not_fhrier.sol:NotFHriEr",
        "label": "_wfhenix",
        "offset": 0,
        "slot": "3",
        "type": "t_contract(IFHERC20)16235"
      },
      {
        "astId": 22962,
        "contract": "contracts/not_fhrier.sol:NotFHriEr",
        "label": "feeForSeek",
        "offset": 0,
        "slot": "4",
        "type": "t_userDefinedValueType(euint16)10"
      },
      {
        "astId": 22983,
        "contract": "contracts/not_fhrier.sol:NotFHriEr",
        "label": "jobPosts",
        "offset": 0,
        "slot": "5",
        "type": "t_mapping(t_bytes32,t_struct(JobPost)22783_storage)"
      },
      {
        "astId": 22986,
        "contract": "contracts/not_fhrier.sol:NotFHriEr",
        "label": "titles",
        "offset": 0,
        "slot": "6",
        "type": "t_array(t_string_storage)dyn_storage"
      },
      {
        "astId": 22991,
        "contract": "contracts/not_fhrier.sol:NotFHriEr",
        "label": "titlesInfo",
        "offset": 0,
        "slot": "7",
        "type": "t_mapping(t_string_memory_ptr,t_struct(TitleInfo)22818_storage)"
      },
      {
        "astId": 22994,
        "contract": "contracts/not_fhrier.sol:NotFHriEr",
        "label": "postersList",
        "offset": 0,
        "slot": "8",
        "type": "t_array(t_address)dyn_storage"
      },
      {
        "astId": 22999,
        "contract": "contracts/not_fhrier.sol:NotFHriEr",
        "label": "posters",
        "offset": 0,
        "slot": "9",
        "type": "t_mapping(t_address,t_struct(PosterInfo)22792_storage)"
      },
      {
        "astId": 23002,
        "contract": "contracts/not_fhrier.sol:NotFHriEr",
        "label": "seekersList",
        "offset": 0,
        "slot": "10",
        "type": "t_array(t_address)dyn_storage"
      },
      {
        "astId": 23007,
        "contract": "contracts/not_fhrier.sol:NotFHriEr",
        "label": "seekers",
        "offset": 0,
        "slot": "11",
        "type": "t_mapping(t_address,t_struct(SeekerInfo)22807_storage)"
      }
    ],
    "types": {
      "t_address": {
        "encoding": "inplace",
        "label": "address",
        "numberOfBytes": "20"
      },
      "t_address_payable": {
        "encoding": "inplace",
        "label": "address payable",
        "numberOfBytes": "20"
      },
      "t_array(t_address)dyn_storage": {
        "base": "t_address",
        "encoding": "dynamic_array",
        "label": "address[]",
        "numberOfBytes": "32"
      },
      "t_array(t_string_storage)dyn_storage": {
        "base": "t_string_storage",
        "encoding": "dynamic_array",
        "label": "string[]",
        "numberOfBytes": "32"
      },
      "t_array(t_uint256)dyn_storage": {
        "base": "t_uint256",
        "encoding": "dynamic_array",
        "label": "uint256[]",
        "numberOfBytes": "32"
      },
      "t_bool": {
        "encoding": "inplace",
        "label": "bool",
        "numberOfBytes": "1"
      },
      "t_bytes32": {
        "encoding": "inplace",
        "label": "bytes32",
        "numberOfBytes": "32"
      },
      "t_contract(IFHERC20)16235": {
        "encoding": "inplace",
        "label": "contract IFHERC20",
        "numberOfBytes": "20"
      },
      "t_mapping(t_address,t_bool)": {
        "encoding": "mapping",
        "key": "t_address",
        "label": "mapping(address => bool)",
        "numberOfBytes": "32",
        "value": "t_bool"
      },
      "t_mapping(t_address,t_struct(PosterInfo)22792_storage)": {
        "encoding": "mapping",
        "key": "t_address",
        "label": "mapping(address => struct JobLibrary.PosterInfo)",
        "numberOfBytes": "32",
        "value": "t_struct(PosterInfo)22792_storage"
      },
      "t_mapping(t_address,t_struct(SeekerInfo)22807_storage)": {
        "encoding": "mapping",
        "key": "t_address",
        "label": "mapping(address => struct JobLibrary.SeekerInfo)",
        "numberOfBytes": "32",
        "value": "t_struct(SeekerInfo)22807_storage"
      },
      "t_mapping(t_bytes32,t_struct(JobPost)22783_storage)": {
        "encoding": "mapping",
        "key": "t_bytes32",
        "label": "mapping(bytes32 => struct JobLibrary.JobPost)",
        "numberOfBytes": "32",
        "value": "t_struct(JobPost)22783_storage"
      },
      "t_mapping(t_string_memory_ptr,t_struct(TitleInfo)22818_storage)": {
        "encoding": "mapping",
        "key": "t_string_memory_ptr",
        "label": "mapping(string => struct JobLibrary.TitleInfo)",
        "numberOfBytes": "32",
        "value": "t_struct(TitleInfo)22818_storage"
      },
      "t_string_memory_ptr": {
        "encoding": "bytes",
        "label": "string",
        "numberOfBytes": "32"
      },
      "t_string_storage": {
        "encoding": "bytes",
        "label": "string",
        "numberOfBytes": "32"
      },
      "t_struct(JobPost)22783_storage": {
        "encoding": "inplace",
        "label": "struct JobLibrary.JobPost",
        "members": [
          {
            "astId": 22779,
            "contract": "contracts/not_fhrier.sol:NotFHriEr",
            "label": "description",
            "offset": 0,
            "slot": "0",
            "type": "t_string_storage"
          },
          {
            "astId": 22782,
            "contract": "contracts/not_fhrier.sol:NotFHriEr",
            "label": "maxSalary",
            "offset": 0,
            "slot": "1",
            "type": "t_userDefinedValueType(euint16)10"
          }
        ],
        "numberOfBytes": "64"
      },
      "t_struct(PosterInfo)22792_storage": {
        "encoding": "inplace",
        "label": "struct JobLibrary.PosterInfo",
        "members": [
          {
            "astId": 22785,
            "contract": "contracts/not_fhrier.sol:NotFHriEr",
            "label": "isKYCVerified",
            "offset": 0,
            "slot": "0",
            "type": "t_bool"
          },
          {
            "astId": 22787,
            "contract": "contracts/not_fhrier.sol:NotFHriEr",
            "label": "isRegisterd",
            "offset": 1,
            "slot": "0",
            "type": "t_bool"
          },
          {
            "astId": 22789,
            "contract": "contracts/not_fhrier.sol:NotFHriEr",
            "label": "name",
            "offset": 0,
            "slot": "1",
            "type": "t_string_storage"
          },
          {
            "astId": 22791,
            "contract": "contracts/not_fhrier.sol:NotFHriEr",
            "label": "contactEmail",
            "offset": 0,
            "slot": "2",
            "type": "t_string_storage"
          }
        ],
        "numberOfBytes": "96"
      },
      "t_struct(SeekerInfo)22807_storage": {
        "encoding": "inplace",
        "label": "struct JobLibrary.SeekerInfo",
        "members": [
          {
            "astId": 22794,
            "contract": "contracts/not_fhrier.sol:NotFHriEr",
            "label": "isKYCVerified",
            "offset": 0,
            "slot": "0",
            "type": "t_bool"
          },
          {
            "astId": 22796,
            "contract": "contracts/not_fhrier.sol:NotFHriEr",
            "label": "isRegisterd",
            "offset": 1,
            "slot": "0",
            "type": "t_bool"
          },
          {
            "astId": 22799,
            "contract": "contracts/not_fhrier.sol:NotFHriEr",
            "label": "feeMultiplier",
            "offset": 0,
            "slot": "1",
            "type": "t_userDefinedValueType(euint16)10"
          },
          {
            "astId": 22801,
            "contract": "contracts/not_fhrier.sol:NotFHriEr",
            "label": "lastTimestamp",
            "offset": 0,
            "slot": "2",
            "type": "t_uint256"
          },
          {
            "astId": 22804,
            "contract": "contracts/not_fhrier.sol:NotFHriEr",
            "label": "latestSearchIndexes",
            "offset": 0,
            "slot": "3",
            "type": "t_array(t_uint256)dyn_storage"
          },
          {
            "astId": 22806,
            "contract": "contracts/not_fhrier.sol:NotFHriEr",
            "label": "latestSearchTitle",
            "offset": 0,
            "slot": "4",
            "type": "t_string_storage"
          }
        ],
        "numberOfBytes": "160"
      },
      "t_struct(TitleInfo)22818_storage": {
        "encoding": "inplace",
        "label": "struct JobLibrary.TitleInfo",
        "members": [
          {
            "astId": 22810,
            "contract": "contracts/not_fhrier.sol:NotFHriEr",
            "label": "sumSalary",
            "offset": 0,
            "slot": "0",
            "type": "t_userDefinedValueType(euint16)10"
          },
          {
            "astId": 22813,
            "contract": "contracts/not_fhrier.sol:NotFHriEr",
            "label": "posters",
            "offset": 0,
            "slot": "1",
            "type": "t_array(t_address)dyn_storage"
          },
          {
            "astId": 22817,
            "contract": "contracts/not_fhrier.sol:NotFHriEr",
            "label": "posted",
            "offset": 0,
            "slot": "2",
            "type": "t_mapping(t_address,t_bool)"
          }
        ],
        "numberOfBytes": "96"
      },
      "t_uint256": {
        "encoding": "inplace",
        "label": "uint256",
        "numberOfBytes": "32"
      },
      "t_userDefinedValueType(euint16)10": {
        "encoding": "inplace",
        "label": "euint16",
        "numberOfBytes": "32"
      }
    }
  }
}